{
  "_format": "hh-sol-artifact-1",
  "contractName": "MyNFT",
  "sourceName": "contracts/MyNFT.sol",
  "abi": [
    {
      "inputs": [],
      "stateMutability": "nonpayable",
      "type": "constructor"
    },
    {
      "anonymous": false,
      "inputs": [
        {
          "indexed": true,
          "internalType": "address",
          "name": "owner",
          "type": "address"
        },
        {
          "indexed": true,
          "internalType": "address",
          "name": "approved",
          "type": "address"
        },
        {
          "indexed": true,
          "internalType": "uint256",
          "name": "tokenId",
          "type": "uint256"
        }
      ],
      "name": "Approval",
      "type": "event"
    },
    {
      "anonymous": false,
      "inputs": [
        {
          "indexed": true,
          "internalType": "address",
          "name": "owner",
          "type": "address"
        },
        {
          "indexed": true,
          "internalType": "address",
          "name": "operator",
          "type": "address"
        },
        {
          "indexed": false,
          "internalType": "bool",
          "name": "approved",
          "type": "bool"
        }
      ],
      "name": "ApprovalForAll",
      "type": "event"
    },
    {
      "anonymous": false,
      "inputs": [
        {
          "indexed": true,
          "internalType": "address",
          "name": "previousOwner",
          "type": "address"
        },
        {
          "indexed": true,
          "internalType": "address",
          "name": "newOwner",
          "type": "address"
        }
      ],
      "name": "OwnershipTransferred",
      "type": "event"
    },
    {
      "anonymous": false,
      "inputs": [
        {
          "indexed": true,
          "internalType": "address",
          "name": "from",
          "type": "address"
        },
        {
          "indexed": true,
          "internalType": "address",
          "name": "to",
          "type": "address"
        },
        {
          "indexed": true,
          "internalType": "uint256",
          "name": "tokenId",
          "type": "uint256"
        }
      ],
      "name": "Transfer",
      "type": "event"
    },
    {
      "inputs": [
        {
          "internalType": "address",
          "name": "to",
          "type": "address"
        },
        {
          "internalType": "uint256",
          "name": "tokenId",
          "type": "uint256"
        }
      ],
      "name": "approve",
      "outputs": [],
      "stateMutability": "nonpayable",
      "type": "function"
    },
    {
      "inputs": [
        {
          "internalType": "address",
          "name": "owner",
          "type": "address"
        }
      ],
      "name": "balanceOf",
      "outputs": [
        {
          "internalType": "uint256",
          "name": "",
          "type": "uint256"
        }
      ],
      "stateMutability": "view",
      "type": "function"
    },
    {
      "inputs": [
        {
          "internalType": "uint256",
          "name": "tokenId",
          "type": "uint256"
        }
      ],
      "name": "getApproved",
      "outputs": [
        {
          "internalType": "address",
          "name": "",
          "type": "address"
        }
      ],
      "stateMutability": "view",
      "type": "function"
    },
    {
      "inputs": [
        {
          "internalType": "uint256",
          "name": "_index",
          "type": "uint256"
        }
      ],
      "name": "getIdentities",
      "outputs": [
        {
          "internalType": "uint256",
          "name": "",
          "type": "uint256"
        },
        {
          "internalType": "address",
          "name": "",
          "type": "address"
        },
        {
          "internalType": "uint256",
          "name": "",
          "type": "uint256"
        }
      ],
      "stateMutability": "view",
      "type": "function"
    },
    {
      "inputs": [],
      "name": "getNFTlength",
      "outputs": [
        {
          "internalType": "uint256",
          "name": "",
          "type": "uint256"
        }
      ],
      "stateMutability": "view",
      "type": "function"
    },
    {
      "inputs": [
        {
          "internalType": "uint256",
          "name": "_index",
          "type": "uint256"
        }
      ],
      "name": "increaseRep",
      "outputs": [],
      "stateMutability": "payable",
      "type": "function"
    },
    {
      "inputs": [
        {
          "internalType": "address",
          "name": "owner",
          "type": "address"
        },
        {
          "internalType": "address",
          "name": "operator",
          "type": "address"
        }
      ],
      "name": "isApprovedForAll",
      "outputs": [
        {
          "internalType": "bool",
          "name": "",
          "type": "bool"
        }
      ],
      "stateMutability": "view",
      "type": "function"
    },
    {
      "inputs": [
        {
          "internalType": "string",
          "name": "uri",
          "type": "string"
        }
      ],
      "name": "mint",
      "outputs": [],
      "stateMutability": "payable",
      "type": "function"
    },
    {
      "inputs": [
        {
          "internalType": "uint256",
          "name": "_newRepfee",
          "type": "uint256"
        }
      ],
      "name": "modifyRepFee",
      "outputs": [],
      "stateMutability": "nonpayable",
      "type": "function"
    },
    {
      "inputs": [],
      "name": "name",
      "outputs": [
        {
          "internalType": "string",
          "name": "",
          "type": "string"
        }
      ],
      "stateMutability": "view",
      "type": "function"
    },
    {
      "inputs": [],
      "name": "owner",
      "outputs": [
        {
          "internalType": "address",
          "name": "",
          "type": "address"
        }
      ],
      "stateMutability": "view",
      "type": "function"
    },
    {
      "inputs": [
        {
          "internalType": "uint256",
          "name": "tokenId",
          "type": "uint256"
        }
      ],
      "name": "ownerOf",
      "outputs": [
        {
          "internalType": "address",
          "name": "",
          "type": "address"
        }
      ],
      "stateMutability": "view",
      "type": "function"
    },
    {
      "inputs": [],
      "name": "renounceOwnership",
      "outputs": [],
      "stateMutability": "nonpayable",
      "type": "function"
    },
    {
      "inputs": [
        {
          "internalType": "address",
          "name": "from",
          "type": "address"
        },
        {
          "internalType": "address",
          "name": "to",
          "type": "address"
        },
        {
          "internalType": "uint256",
          "name": "tokenId",
          "type": "uint256"
        }
      ],
      "name": "safeTransferFrom",
      "outputs": [],
      "stateMutability": "nonpayable",
      "type": "function"
    },
    {
      "inputs": [
        {
          "internalType": "address",
          "name": "from",
          "type": "address"
        },
        {
          "internalType": "address",
          "name": "to",
          "type": "address"
        },
        {
          "internalType": "uint256",
          "name": "tokenId",
          "type": "uint256"
        },
        {
          "internalType": "bytes",
          "name": "data",
          "type": "bytes"
        }
      ],
      "name": "safeTransferFrom",
      "outputs": [],
      "stateMutability": "nonpayable",
      "type": "function"
    },
    {
      "inputs": [
        {
          "internalType": "address",
          "name": "operator",
          "type": "address"
        },
        {
          "internalType": "bool",
          "name": "approved",
          "type": "bool"
        }
      ],
      "name": "setApprovalForAll",
      "outputs": [],
      "stateMutability": "nonpayable",
      "type": "function"
    },
    {
      "inputs": [
        {
          "internalType": "bytes4",
          "name": "interfaceId",
          "type": "bytes4"
        }
      ],
      "name": "supportsInterface",
      "outputs": [
        {
          "internalType": "bool",
          "name": "",
          "type": "bool"
        }
      ],
      "stateMutability": "view",
      "type": "function"
    },
    {
      "inputs": [],
      "name": "symbol",
      "outputs": [
        {
          "internalType": "string",
          "name": "",
          "type": "string"
        }
      ],
      "stateMutability": "view",
      "type": "function"
    },
    {
      "inputs": [
        {
          "internalType": "uint256",
          "name": "index",
          "type": "uint256"
        }
      ],
      "name": "tokenByIndex",
      "outputs": [
        {
          "internalType": "uint256",
          "name": "",
          "type": "uint256"
        }
      ],
      "stateMutability": "view",
      "type": "function"
    },
    {
      "inputs": [
        {
          "internalType": "address",
          "name": "owner",
          "type": "address"
        },
        {
          "internalType": "uint256",
          "name": "index",
          "type": "uint256"
        }
      ],
      "name": "tokenOfOwnerByIndex",
      "outputs": [
        {
          "internalType": "uint256",
          "name": "",
          "type": "uint256"
        }
      ],
      "stateMutability": "view",
      "type": "function"
    },
    {
      "inputs": [
        {
          "internalType": "uint256",
          "name": "tokenId",
          "type": "uint256"
        }
      ],
      "name": "tokenURI",
      "outputs": [
        {
          "internalType": "string",
          "name": "",
          "type": "string"
        }
      ],
      "stateMutability": "view",
      "type": "function"
    },
    {
      "inputs": [],
      "name": "totalSupply",
      "outputs": [
        {
          "internalType": "uint256",
          "name": "",
          "type": "uint256"
        }
      ],
      "stateMutability": "view",
      "type": "function"
    },
    {
      "inputs": [
        {
          "internalType": "address",
          "name": "from",
          "type": "address"
        },
        {
          "internalType": "address",
          "name": "to",
          "type": "address"
        },
        {
          "internalType": "uint256",
          "name": "tokenId",
          "type": "uint256"
        }
      ],
      "name": "transferFrom",
      "outputs": [],
      "stateMutability": "nonpayable",
      "type": "function"
    },
    {
      "inputs": [
        {
          "internalType": "address",
          "name": "newOwner",
          "type": "address"
        }
      ],
      "name": "transferOwnership",
      "outputs": [],
      "stateMutability": "nonpayable",
      "type": "function"
    }
  ],
  "bytecode": "0x608060405266470de4df820000600d553480156200001c57600080fd5b506040518060400160405280600c81526020017f43454c4f4944454e5449545900000000000000000000000000000000000000008152506040518060400160405280600481526020017f43494454000000000000000000000000000000000000000000000000000000008152508160009080519060200190620000a1929190620001b1565b508060019080519060200190620000ba929190620001b1565b505050620000dd620000d1620000e360201b60201c565b620000eb60201b60201c565b620002c6565b600033905090565b6000600b60009054906101000a900473ffffffffffffffffffffffffffffffffffffffff16905081600b60006101000a81548173ffffffffffffffffffffffffffffffffffffffff021916908373ffffffffffffffffffffffffffffffffffffffff1602179055508173ffffffffffffffffffffffffffffffffffffffff168173ffffffffffffffffffffffffffffffffffffffff167f8be0079c531659141344cd1fd0a4f28419497f9722a3daafe3b4186f6b6457e060405160405180910390a35050565b828054620001bf9062000261565b90600052602060002090601f016020900481019282620001e357600085556200022f565b82601f10620001fe57805160ff19168380011785556200022f565b828001600101855582156200022f579182015b828111156200022e57825182559160200191906001019062000211565b5b5090506200023e919062000242565b5090565b5b808211156200025d57600081600090555060010162000243565b5090565b600060028204905060018216806200027a57607f821691505b6020821081141562000291576200029062000297565b5b50919050565b7f4e487b7100000000000000000000000000000000000000000000000000000000600052602260045260246000fd5b61418180620002d66000396000f3fe60806040526004361061014b5760003560e01c80638877570f116100b6578063c87b56dd1161006f578063c87b56dd146104a9578063d41daa2b146104e6578063d85d3d2714610511578063e985e9c51461052d578063f2da30db1461056a578063f2fde38b146105935761014b565b80638877570f146103a65780638da5cb5b146103c257806395d89b41146103ed578063a22cb46514610418578063aef5280b14610441578063b88d4fde146104805761014b565b80632f745c59116101085780632f745c591461027257806342842e0e146102af5780634f6ccce7146102d85780636352211e1461031557806370a0823114610352578063715018a61461038f5761014b565b806301ffc9a71461015057806306fdde031461018d578063081812fc146101b8578063095ea7b3146101f557806318160ddd1461021e57806323b872dd14610249575b600080fd5b34801561015c57600080fd5b5061017760048036038101906101729190612f80565b6105bc565b60405161018491906134d5565b60405180910390f35b34801561019957600080fd5b506101a26105ce565b6040516101af91906134f0565b60405180910390f35b3480156101c457600080fd5b506101df60048036038101906101da9190613017565b610660565b6040516101ec919061346e565b60405180910390f35b34801561020157600080fd5b5061021c60048036038101906102179190612f44565b6106a6565b005b34801561022a57600080fd5b506102336107be565b60405161024091906137d2565b60405180910390f35b34801561025557600080fd5b50610270600480360381019061026b9190612e3e565b6107cb565b005b34801561027e57600080fd5b5061029960048036038101906102949190612f44565b61082b565b6040516102a691906137d2565b60405180910390f35b3480156102bb57600080fd5b506102d660048036038101906102d19190612e3e565b6108d0565b005b3480156102e457600080fd5b506102ff60048036038101906102fa9190613017565b6108f0565b60405161030c91906137d2565b60405180910390f35b34801561032157600080fd5b5061033c60048036038101906103379190613017565b610987565b604051610349919061346e565b60405180910390f35b34801561035e57600080fd5b5061037960048036038101906103749190612dd9565b610a0e565b60405161038691906137d2565b60405180910390f35b34801561039b57600080fd5b506103a4610ac6565b005b6103c060048036038101906103bb9190613017565b610ada565b005b3480156103ce57600080fd5b506103d7610db5565b6040516103e4919061346e565b60405180910390f35b3480156103f957600080fd5b50610402610ddf565b60405161040f91906134f0565b60405180910390f35b34801561042457600080fd5b5061043f600480360381019061043a9190612f08565b610e71565b005b34801561044d57600080fd5b5061046860048036038101906104639190613017565b610e87565b604051610477939291906137ed565b60405180910390f35b34801561048c57600080fd5b506104a760048036038101906104a29190612e8d565b610f34565b005b3480156104b557600080fd5b506104d060048036038101906104cb9190613017565b610f96565b6040516104dd91906134f0565b60405180910390f35b3480156104f257600080fd5b506104fb610fa8565b60405161050891906137d2565b60405180910390f35b61052b60048036038101906105269190612fd2565b610fb9565b005b34801561053957600080fd5b50610554600480360381019061054f9190612e02565b611119565b60405161056191906134d5565b60405180910390f35b34801561057657600080fd5b50610591600480360381019061058c9190613017565b6111ad565b005b34801561059f57600080fd5b506105ba60048036038101906105b59190612dd9565b6111bf565b005b60006105c782611243565b9050919050565b6060600080546105dd90613a08565b80601f016020809104026020016040519081016040528092919081815260200182805461060990613a08565b80156106565780601f1061062b57610100808354040283529160200191610656565b820191906000526020600020905b81548152906001019060200180831161063957829003601f168201915b5050505050905090565b600061066b826112bd565b6004600083815260200190815260200160002060009054906101000a900473ffffffffffffffffffffffffffffffffffffffff169050919050565b60006106b182610987565b90508073ffffffffffffffffffffffffffffffffffffffff168373ffffffffffffffffffffffffffffffffffffffff161415610722576040517f08c379a000000000000000000000000000000000000000000000000000000000815260040161071990613752565b60405180910390fd5b8073ffffffffffffffffffffffffffffffffffffffff16610741611308565b73ffffffffffffffffffffffffffffffffffffffff161480610770575061076f8161076a611308565b611119565b5b6107af576040517f08c379a00000000000000000000000000000000000000000000000000000000081526004016107a690613772565b60405180910390fd5b6107b98383611310565b505050565b6000600880549050905090565b6107dc6107d6611308565b826113c9565b61081b576040517f08c379a000000000000000000000000000000000000000000000000000000000815260040161081290613512565b60405180910390fd5b61082683838361145e565b505050565b600061083683610a0e565b8210610877576040517f08c379a000000000000000000000000000000000000000000000000000000000815260040161086e90613572565b60405180910390fd5b600660008473ffffffffffffffffffffffffffffffffffffffff1673ffffffffffffffffffffffffffffffffffffffff168152602001908152602001600020600083815260200190815260200160002054905092915050565b6108eb83838360405180602001604052806000815250610f34565b505050565b60006108fa6107be565b821061093b576040517f08c379a000000000000000000000000000000000000000000000000000000000815260040161093290613792565b60405180910390fd5b60088281548110610975577f4e487b7100000000000000000000000000000000000000000000000000000000600052603260045260246000fd5b90600052602060002001549050919050565b60008061099383611758565b9050600073ffffffffffffffffffffffffffffffffffffffff168173ffffffffffffffffffffffffffffffffffffffff161415610a05576040517f08c379a00000000000000000000000000000000000000000000000000000000081526004016109fc90613732565b60405180910390fd5b80915050919050565b60008073ffffffffffffffffffffffffffffffffffffffff168273ffffffffffffffffffffffffffffffffffffffff161415610a7f576040517f08c379a0000000000000000000000000000000000000000000000000000000008152600401610a7690613672565b60405180910390fd5b600360008373ffffffffffffffffffffffffffffffffffffffff1673ffffffffffffffffffffffffffffffffffffffff168152602001908152602001600020549050919050565b610ace611795565b610ad86000611813565b565b600d543414610b1e576040517f08c379a0000000000000000000000000000000000000000000000000000000008152600401610b1590613552565b60405180910390fd5b600e600082815260200190815260200160002060010160009054906101000a900473ffffffffffffffffffffffffffffffffffffffff1673ffffffffffffffffffffffffffffffffffffffff163373ffffffffffffffffffffffffffffffffffffffff161415610bc3576040517f08c379a0000000000000000000000000000000000000000000000000000000008152600401610bba90613532565b60405180910390fd5b60001515600f600083815260200190815260200160002060003373ffffffffffffffffffffffffffffffffffffffff1673ffffffffffffffffffffffffffffffffffffffff16815260200190815260200160002060009054906101000a900460ff16151514610c67576040517f08c379a0000000000000000000000000000000000000000000000000000000008152600401610c5e906136b2565b60405180910390fd5b600e60008281526020019081526020016000206002016000815480929190610c8e90613a6b565b91905055506001600f600083815260200190815260200160002060003373ffffffffffffffffffffffffffffffffffffffff1673ffffffffffffffffffffffffffffffffffffffff16815260200190815260200160002060006101000a81548160ff0219169083151502179055506000610d06610db5565b73ffffffffffffffffffffffffffffffffffffffff16600d54604051610d2b90613459565b60006040518083038185875af1925050503d8060008114610d68576040519150601f19603f3d011682016040523d82523d6000602084013e610d6d565b606091505b5050905080610db1576040517f08c379a0000000000000000000000000000000000000000000000000000000008152600401610da8906135d2565b60405180910390fd5b5050565b6000600b60009054906101000a900473ffffffffffffffffffffffffffffffffffffffff16905090565b606060018054610dee90613a08565b80601f0160208091040260200160405190810160405280929190818152602001828054610e1a90613a08565b8015610e675780601f10610e3c57610100808354040283529160200191610e67565b820191906000526020600020905b815481529060010190602001808311610e4a57829003601f168201915b5050505050905090565b610e83610e7c611308565b83836118d9565b5050565b600080600080600e6000868152602001908152602001600020604051806060016040529081600082015481526020016001820160009054906101000a900473ffffffffffffffffffffffffffffffffffffffff1673ffffffffffffffffffffffffffffffffffffffff1673ffffffffffffffffffffffffffffffffffffffff1681526020016002820154815250509050806000015181602001518260400151935093509350509193909250565b610f45610f3f611308565b836113c9565b610f84576040517f08c379a0000000000000000000000000000000000000000000000000000000008152600401610f7b90613512565b60405180910390fd5b610f9084848484611a46565b50505050565b6060610fa182611aa2565b9050919050565b6000610fb4600c611bb5565b905090565b60008282905011610fff576040517f08c379a0000000000000000000000000000000000000000000000000000000008152600401610ff6906136d2565b60405180910390fd5b611009600c611bc3565b6000611015600c611bb5565b90506110213382611bd9565b61106f8184848080601f016020809104026020016040519081016040528093929190818152602001838380828437600081840152601f19601f82011690508083019250505050505050611bf7565b600060405180606001604052808381526020013373ffffffffffffffffffffffffffffffffffffffff16815260200182815250600e60008481526020019081526020016000206000820151816000015560208201518160010160006101000a81548173ffffffffffffffffffffffffffffffffffffffff021916908373ffffffffffffffffffffffffffffffffffffffff1602179055506040820151816002015590505050505050565b6000600560008473ffffffffffffffffffffffffffffffffffffffff1673ffffffffffffffffffffffffffffffffffffffff16815260200190815260200160002060008373ffffffffffffffffffffffffffffffffffffffff1673ffffffffffffffffffffffffffffffffffffffff16815260200190815260200160002060009054906101000a900460ff16905092915050565b6111b5611795565b80600d8190555050565b6111c7611795565b600073ffffffffffffffffffffffffffffffffffffffff168173ffffffffffffffffffffffffffffffffffffffff161415611237576040517f08c379a000000000000000000000000000000000000000000000000000000000815260040161122e906135b2565b60405180910390fd5b61124081611813565b50565b60007f780e9d63000000000000000000000000000000000000000000000000000000007bffffffffffffffffffffffffffffffffffffffffffffffffffffffff1916827bffffffffffffffffffffffffffffffffffffffffffffffffffffffff191614806112b657506112b582611c6b565b5b9050919050565b6112c681611d4d565b611305576040517f08c379a00000000000000000000000000000000000000000000000000000000081526004016112fc90613732565b60405180910390fd5b50565b600033905090565b816004600083815260200190815260200160002060006101000a81548173ffffffffffffffffffffffffffffffffffffffff021916908373ffffffffffffffffffffffffffffffffffffffff160217905550808273ffffffffffffffffffffffffffffffffffffffff1661138383610987565b73ffffffffffffffffffffffffffffffffffffffff167f8c5be1e5ebec7d5bd14f71427d1e84f3dd0314c0f7b2291e5b200ac8c7c3b92560405160405180910390a45050565b6000806113d583610987565b90508073ffffffffffffffffffffffffffffffffffffffff168473ffffffffffffffffffffffffffffffffffffffff16148061141757506114168185611119565b5b8061145557508373ffffffffffffffffffffffffffffffffffffffff1661143d84610660565b73ffffffffffffffffffffffffffffffffffffffff16145b91505092915050565b8273ffffffffffffffffffffffffffffffffffffffff1661147e82610987565b73ffffffffffffffffffffffffffffffffffffffff16146114d4576040517f08c379a00000000000000000000000000000000000000000000000000000000081526004016114cb906135f2565b60405180910390fd5b600073ffffffffffffffffffffffffffffffffffffffff168273ffffffffffffffffffffffffffffffffffffffff161415611544576040517f08c379a000000000000000000000000000000000000000000000000000000000815260040161153b90613632565b60405180910390fd5b6115518383836001611d8e565b8273ffffffffffffffffffffffffffffffffffffffff1661157182610987565b73ffffffffffffffffffffffffffffffffffffffff16146115c7576040517f08c379a00000000000000000000000000000000000000000000000000000000081526004016115be906135f2565b60405180910390fd5b6004600082815260200190815260200160002060006101000a81549073ffffffffffffffffffffffffffffffffffffffff02191690556001600360008573ffffffffffffffffffffffffffffffffffffffff1673ffffffffffffffffffffffffffffffffffffffff168152602001908152602001600020600082825403925050819055506001600360008473ffffffffffffffffffffffffffffffffffffffff1673ffffffffffffffffffffffffffffffffffffffff16815260200190815260200160002060008282540192505081905550816002600083815260200190815260200160002060006101000a81548173ffffffffffffffffffffffffffffffffffffffff021916908373ffffffffffffffffffffffffffffffffffffffff160217905550808273ffffffffffffffffffffffffffffffffffffffff168473ffffffffffffffffffffffffffffffffffffffff167fddf252ad1be2c89b69c2b068fc378daa952ba7f163c4a11628f55a4df523b3ef60405160405180910390a46117538383836001611da0565b505050565b60006002600083815260200190815260200160002060009054906101000a900473ffffffffffffffffffffffffffffffffffffffff169050919050565b61179d611308565b73ffffffffffffffffffffffffffffffffffffffff166117bb610db5565b73ffffffffffffffffffffffffffffffffffffffff1614611811576040517f08c379a000000000000000000000000000000000000000000000000000000000815260040161180890613712565b60405180910390fd5b565b6000600b60009054906101000a900473ffffffffffffffffffffffffffffffffffffffff16905081600b60006101000a81548173ffffffffffffffffffffffffffffffffffffffff021916908373ffffffffffffffffffffffffffffffffffffffff1602179055508173ffffffffffffffffffffffffffffffffffffffff168173ffffffffffffffffffffffffffffffffffffffff167f8be0079c531659141344cd1fd0a4f28419497f9722a3daafe3b4186f6b6457e060405160405180910390a35050565b8173ffffffffffffffffffffffffffffffffffffffff168373ffffffffffffffffffffffffffffffffffffffff161415611948576040517f08c379a000000000000000000000000000000000000000000000000000000000815260040161193f90613652565b60405180910390fd5b80600560008573ffffffffffffffffffffffffffffffffffffffff1673ffffffffffffffffffffffffffffffffffffffff16815260200190815260200160002060008473ffffffffffffffffffffffffffffffffffffffff1673ffffffffffffffffffffffffffffffffffffffff16815260200190815260200160002060006101000a81548160ff0219169083151502179055508173ffffffffffffffffffffffffffffffffffffffff168373ffffffffffffffffffffffffffffffffffffffff167f17307eab39ab6107e8899845ad3d59bd9653f200f220920489ca2b5937696c3183604051611a3991906134d5565b60405180910390a3505050565b611a5184848461145e565b611a5d84848484611da6565b611a9c576040517f08c379a0000000000000000000000000000000000000000000000000000000008152600401611a9390613592565b60405180910390fd5b50505050565b6060611aad826112bd565b6000600a60008481526020019081526020016000208054611acd90613a08565b80601f0160208091040260200160405190810160405280929190818152602001828054611af990613a08565b8015611b465780601f10611b1b57610100808354040283529160200191611b46565b820191906000526020600020905b815481529060010190602001808311611b2957829003601f168201915b505050505090506000611b57611f3d565b9050600081511415611b6d578192505050611bb0565b600082511115611ba2578082604051602001611b8a929190613435565b60405160208183030381529060405292505050611bb0565b611bab84611f54565b925050505b919050565b600081600001549050919050565b6001816000016000828254019250508190555050565b611bf3828260405180602001604052806000815250611fbc565b5050565b611c0082611d4d565b611c3f576040517f08c379a0000000000000000000000000000000000000000000000000000000008152600401611c3690613692565b60405180910390fd5b80600a60008481526020019081526020016000209080519060200190611c66929190612c1b565b505050565b60007f80ac58cd000000000000000000000000000000000000000000000000000000007bffffffffffffffffffffffffffffffffffffffffffffffffffffffff1916827bffffffffffffffffffffffffffffffffffffffffffffffffffffffff19161480611d3657507f5b5e139f000000000000000000000000000000000000000000000000000000007bffffffffffffffffffffffffffffffffffffffffffffffffffffffff1916827bffffffffffffffffffffffffffffffffffffffffffffffffffffffff1916145b80611d465750611d4582612017565b5b9050919050565b60008073ffffffffffffffffffffffffffffffffffffffff16611d6f83611758565b73ffffffffffffffffffffffffffffffffffffffff1614159050919050565b611d9a84848484612081565b50505050565b50505050565b6000611dc78473ffffffffffffffffffffffffffffffffffffffff166121e1565b15611f30578373ffffffffffffffffffffffffffffffffffffffff1663150b7a02611df0611308565b8786866040518563ffffffff1660e01b8152600401611e129493929190613489565b602060405180830381600087803b158015611e2c57600080fd5b505af1925050508015611e5d57506040513d601f19601f82011682018060405250810190611e5a9190612fa9565b60015b611ee0573d8060008114611e8d576040519150601f19603f3d011682016040523d82523d6000602084013e611e92565b606091505b50600081511415611ed8576040517f08c379a0000000000000000000000000000000000000000000000000000000008152600401611ecf90613592565b60405180910390fd5b805181602001fd5b63150b7a0260e01b7bffffffffffffffffffffffffffffffffffffffffffffffffffffffff1916817bffffffffffffffffffffffffffffffffffffffffffffffffffffffff191614915050611f35565b600190505b949350505050565b606060405180602001604052806000815250905090565b6060611f5f826112bd565b6000611f69611f3d565b90506000815111611f895760405180602001604052806000815250611fb4565b80611f9384612204565b604051602001611fa4929190613435565b6040516020818303038152906040525b915050919050565b611fc68383612328565b611fd36000848484611da6565b612012576040517f08c379a000000000000000000000000000000000000000000000000000000000815260040161200990613592565b60405180910390fd5b505050565b60007f01ffc9a7000000000000000000000000000000000000000000000000000000007bffffffffffffffffffffffffffffffffffffffffffffffffffffffff1916827bffffffffffffffffffffffffffffffffffffffffffffffffffffffff1916149050919050565b61208d84848484612546565b60018111156120d1576040517f08c379a00000000000000000000000000000000000000000000000000000000081526004016120c8906137b2565b60405180910390fd5b6000829050600073ffffffffffffffffffffffffffffffffffffffff168573ffffffffffffffffffffffffffffffffffffffff161415612119576121148161266c565b612158565b8373ffffffffffffffffffffffffffffffffffffffff168573ffffffffffffffffffffffffffffffffffffffff16146121575761215685826126b5565b5b5b600073ffffffffffffffffffffffffffffffffffffffff168473ffffffffffffffffffffffffffffffffffffffff16141561219b5761219681612822565b6121da565b8473ffffffffffffffffffffffffffffffffffffffff168473ffffffffffffffffffffffffffffffffffffffff16146121d9576121d88482612965565b5b5b5050505050565b6000808273ffffffffffffffffffffffffffffffffffffffff163b119050919050565b606060006001612213846129e4565b01905060008167ffffffffffffffff811115612258577f4e487b7100000000000000000000000000000000000000000000000000000000600052604160045260246000fd5b6040519080825280601f01601f19166020018201604052801561228a5781602001600182028036833780820191505090505b509050600082602001820190505b60011561231d578080600190039150507f3031323334353637383961626364656600000000000000000000000000000000600a86061a8153600a8581612307577f4e487b7100000000000000000000000000000000000000000000000000000000600052601260045260246000fd5b04945060008514156123185761231d565b612298565b819350505050919050565b600073ffffffffffffffffffffffffffffffffffffffff168273ffffffffffffffffffffffffffffffffffffffff161415612398576040517f08c379a000000000000000000000000000000000000000000000000000000000815260040161238f906136f2565b60405180910390fd5b6123a181611d4d565b156123e1576040517f08c379a00000000000000000000000000000000000000000000000000000000081526004016123d890613612565b60405180910390fd5b6123ef600083836001611d8e565b6123f881611d4d565b15612438576040517f08c379a000000000000000000000000000000000000000000000000000000000815260040161242f90613612565b60405180910390fd5b6001600360008473ffffffffffffffffffffffffffffffffffffffff1673ffffffffffffffffffffffffffffffffffffffff16815260200190815260200160002060008282540192505081905550816002600083815260200190815260200160002060006101000a81548173ffffffffffffffffffffffffffffffffffffffff021916908373ffffffffffffffffffffffffffffffffffffffff160217905550808273ffffffffffffffffffffffffffffffffffffffff16600073ffffffffffffffffffffffffffffffffffffffff167fddf252ad1be2c89b69c2b068fc378daa952ba7f163c4a11628f55a4df523b3ef60405160405180910390a4612542600083836001611da0565b5050565b600181111561266657600073ffffffffffffffffffffffffffffffffffffffff168473ffffffffffffffffffffffffffffffffffffffff16146125da5780600360008673ffffffffffffffffffffffffffffffffffffffff1673ffffffffffffffffffffffffffffffffffffffff16815260200190815260200160002060008282546125d2919061391e565b925050819055505b600073ffffffffffffffffffffffffffffffffffffffff168373ffffffffffffffffffffffffffffffffffffffff16146126655780600360008573ffffffffffffffffffffffffffffffffffffffff1673ffffffffffffffffffffffffffffffffffffffff168152602001908152602001600020600082825461265d91906138c8565b925050819055505b5b50505050565b6008805490506009600083815260200190815260200160002081905550600881908060018154018082558091505060019003906000526020600020016000909190919091505550565b600060016126c284610a0e565b6126cc919061391e565b90506000600760008481526020019081526020016000205490508181146127b1576000600660008673ffffffffffffffffffffffffffffffffffffffff1673ffffffffffffffffffffffffffffffffffffffff168152602001908152602001600020600084815260200190815260200160002054905080600660008773ffffffffffffffffffffffffffffffffffffffff1673ffffffffffffffffffffffffffffffffffffffff168152602001908152602001600020600084815260200190815260200160002081905550816007600083815260200190815260200160002081905550505b6007600084815260200190815260200160002060009055600660008573ffffffffffffffffffffffffffffffffffffffff1673ffffffffffffffffffffffffffffffffffffffff16815260200190815260200160002060008381526020019081526020016000206000905550505050565b60006001600880549050612836919061391e565b905060006009600084815260200190815260200160002054905060006008838154811061288c577f4e487b7100000000000000000000000000000000000000000000000000000000600052603260045260246000fd5b9060005260206000200154905080600883815481106128d4577f4e487b7100000000000000000000000000000000000000000000000000000000600052603260045260246000fd5b906000526020600020018190555081600960008381526020019081526020016000208190555060096000858152602001908152602001600020600090556008805480612949577f4e487b7100000000000000000000000000000000000000000000000000000000600052603160045260246000fd5b6001900381819060005260206000200160009055905550505050565b600061297083610a0e565b905081600660008573ffffffffffffffffffffffffffffffffffffffff1673ffffffffffffffffffffffffffffffffffffffff168152602001908152602001600020600083815260200190815260200160002081905550806007600084815260200190815260200160002081905550505050565b600080600090507a184f03e93ff9f4daa797ed6e38ed64bf6a1f0100000000000000008310612a68577a184f03e93ff9f4daa797ed6e38ed64bf6a1f0100000000000000008381612a5e577f4e487b7100000000000000000000000000000000000000000000000000000000600052601260045260246000fd5b0492506040810190505b6d04ee2d6d415b85acef81000000008310612acb576d04ee2d6d415b85acef81000000008381612ac1577f4e487b7100000000000000000000000000000000000000000000000000000000600052601260045260246000fd5b0492506020810190505b662386f26fc100008310612b2057662386f26fc100008381612b16577f4e487b7100000000000000000000000000000000000000000000000000000000600052601260045260246000fd5b0492506010810190505b6305f5e1008310612b6f576305f5e1008381612b65577f4e487b7100000000000000000000000000000000000000000000000000000000600052601260045260246000fd5b0492506008810190505b6127108310612bba576127108381612bb0577f4e487b7100000000000000000000000000000000000000000000000000000000600052601260045260246000fd5b0492506004810190505b60648310612c035760648381612bf9577f4e487b7100000000000000000000000000000000000000000000000000000000600052601260045260246000fd5b0492506002810190505b600a8310612c12576001810190505b80915050919050565b828054612c2790613a08565b90600052602060002090601f016020900481019282612c495760008555612c90565b82601f10612c6257805160ff1916838001178555612c90565b82800160010185558215612c90579182015b82811115612c8f578251825591602001919060010190612c74565b5b509050612c9d9190612ca1565b5090565b5b80821115612cba576000816000905550600101612ca2565b5090565b6000612cd1612ccc84613849565b613824565b905082815260208101848484011115612ce957600080fd5b612cf48482856139c6565b509392505050565b600081359050612d0b816140ef565b92915050565b600081359050612d2081614106565b92915050565b600081359050612d358161411d565b92915050565b600081519050612d4a8161411d565b92915050565b600082601f830112612d6157600080fd5b8135612d71848260208601612cbe565b91505092915050565b60008083601f840112612d8c57600080fd5b8235905067ffffffffffffffff811115612da557600080fd5b602083019150836001820283011115612dbd57600080fd5b9250929050565b600081359050612dd381614134565b92915050565b600060208284031215612deb57600080fd5b6000612df984828501612cfc565b91505092915050565b60008060408385031215612e1557600080fd5b6000612e2385828601612cfc565b9250506020612e3485828601612cfc565b9150509250929050565b600080600060608486031215612e5357600080fd5b6000612e6186828701612cfc565b9350506020612e7286828701612cfc565b9250506040612e8386828701612dc4565b9150509250925092565b60008060008060808587031215612ea357600080fd5b6000612eb187828801612cfc565b9450506020612ec287828801612cfc565b9350506040612ed387828801612dc4565b925050606085013567ffffffffffffffff811115612ef057600080fd5b612efc87828801612d50565b91505092959194509250565b60008060408385031215612f1b57600080fd5b6000612f2985828601612cfc565b9250506020612f3a85828601612d11565b9150509250929050565b60008060408385031215612f5757600080fd5b6000612f6585828601612cfc565b9250506020612f7685828601612dc4565b9150509250929050565b600060208284031215612f9257600080fd5b6000612fa084828501612d26565b91505092915050565b600060208284031215612fbb57600080fd5b6000612fc984828501612d3b565b91505092915050565b60008060208385031215612fe557600080fd5b600083013567ffffffffffffffff811115612fff57600080fd5b61300b85828601612d7a565b92509250509250929050565b60006020828403121561302957600080fd5b600061303784828501612dc4565b91505092915050565b61304981613952565b82525050565b61305881613964565b82525050565b60006130698261387a565b6130738185613890565b93506130838185602086016139d5565b61308c81613b41565b840191505092915050565b60006130a282613885565b6130ac81856138ac565b93506130bc8185602086016139d5565b6130c581613b41565b840191505092915050565b60006130db82613885565b6130e581856138bd565b93506130f58185602086016139d5565b80840191505092915050565b600061310e602d836138ac565b915061311982613b52565b604082019050919050565b6000613131602f836138ac565b915061313c82613ba1565b604082019050919050565b60006131546026836138ac565b915061315f82613bf0565b604082019050919050565b6000613177602b836138ac565b915061318282613c3f565b604082019050919050565b600061319a6032836138ac565b91506131a582613c8e565b604082019050919050565b60006131bd6026836138ac565b91506131c882613cdd565b604082019050919050565b60006131e0600f836138ac565b91506131eb82613d2c565b602082019050919050565b60006132036025836138ac565b915061320e82613d55565b604082019050919050565b6000613226601c836138ac565b915061323182613da4565b602082019050919050565b60006132496024836138ac565b915061325482613dcd565b604082019050919050565b600061326c6019836138ac565b915061327782613e1c565b602082019050919050565b600061328f6029836138ac565b915061329a82613e45565b604082019050919050565b60006132b2602e836138ac565b91506132bd82613e94565b604082019050919050565b60006132d56016836138ac565b91506132e082613ee3565b602082019050919050565b60006132f86009836138ac565b915061330382613f0c565b602082019050919050565b600061331b6020836138ac565b915061332682613f35565b602082019050919050565b600061333e6020836138ac565b915061334982613f5e565b602082019050919050565b60006133616018836138ac565b915061336c82613f87565b602082019050919050565b60006133846021836138ac565b915061338f82613fb0565b604082019050919050565b60006133a76000836138a1565b91506133b282613fff565b600082019050919050565b60006133ca603d836138ac565b91506133d582614002565b604082019050919050565b60006133ed602c836138ac565b91506133f882614051565b604082019050919050565b60006134106035836138ac565b915061341b826140a0565b604082019050919050565b61342f816139bc565b82525050565b600061344182856130d0565b915061344d82846130d0565b91508190509392505050565b60006134648261339a565b9150819050919050565b60006020820190506134836000830184613040565b92915050565b600060808201905061349e6000830187613040565b6134ab6020830186613040565b6134b86040830185613426565b81810360608301526134ca818461305e565b905095945050505050565b60006020820190506134ea600083018461304f565b92915050565b6000602082019050818103600083015261350a8184613097565b905092915050565b6000602082019050818103600083015261352b81613101565b9050919050565b6000602082019050818103600083015261354b81613124565b9050919050565b6000602082019050818103600083015261356b81613147565b9050919050565b6000602082019050818103600083015261358b8161316a565b9050919050565b600060208201905081810360008301526135ab8161318d565b9050919050565b600060208201905081810360008301526135cb816131b0565b9050919050565b600060208201905081810360008301526135eb816131d3565b9050919050565b6000602082019050818103600083015261360b816131f6565b9050919050565b6000602082019050818103600083015261362b81613219565b9050919050565b6000602082019050818103600083015261364b8161323c565b9050919050565b6000602082019050818103600083015261366b8161325f565b9050919050565b6000602082019050818103600083015261368b81613282565b9050919050565b600060208201905081810360008301526136ab816132a5565b9050919050565b600060208201905081810360008301526136cb816132c8565b9050919050565b600060208201905081810360008301526136eb816132eb565b9050919050565b6000602082019050818103600083015261370b8161330e565b9050919050565b6000602082019050818103600083015261372b81613331565b9050919050565b6000602082019050818103600083015261374b81613354565b9050919050565b6000602082019050818103600083015261376b81613377565b9050919050565b6000602082019050818103600083015261378b816133bd565b9050919050565b600060208201905081810360008301526137ab816133e0565b9050919050565b600060208201905081810360008301526137cb81613403565b9050919050565b60006020820190506137e76000830184613426565b92915050565b60006060820190506138026000830186613426565b61380f6020830185613040565b61381c6040830184613426565b949350505050565b600061382e61383f565b905061383a8282613a3a565b919050565b6000604051905090565b600067ffffffffffffffff82111561386457613863613b12565b5b61386d82613b41565b9050602081019050919050565b600081519050919050565b600081519050919050565b600082825260208201905092915050565b600081905092915050565b600082825260208201905092915050565b600081905092915050565b60006138d3826139bc565b91506138de836139bc565b9250827fffffffffffffffffffffffffffffffffffffffffffffffffffffffffffffffff0382111561391357613912613ab4565b5b828201905092915050565b6000613929826139bc565b9150613934836139bc565b92508282101561394757613946613ab4565b5b828203905092915050565b600061395d8261399c565b9050919050565b60008115159050919050565b60007fffffffff0000000000000000000000000000000000000000000000000000000082169050919050565b600073ffffffffffffffffffffffffffffffffffffffff82169050919050565b6000819050919050565b82818337600083830152505050565b60005b838110156139f35780820151818401526020810190506139d8565b83811115613a02576000848401525b50505050565b60006002820490506001821680613a2057607f821691505b60208210811415613a3457613a33613ae3565b5b50919050565b613a4382613b41565b810181811067ffffffffffffffff82111715613a6257613a61613b12565b5b80604052505050565b6000613a76826139bc565b91507fffffffffffffffffffffffffffffffffffffffffffffffffffffffffffffffff821415613aa957613aa8613ab4565b5b600182019050919050565b7f4e487b7100000000000000000000000000000000000000000000000000000000600052601160045260246000fd5b7f4e487b7100000000000000000000000000000000000000000000000000000000600052602260045260246000fd5b7f4e487b7100000000000000000000000000000000000000000000000000000000600052604160045260246000fd5b6000601f19601f8301169050919050565b7f4552433732313a2063616c6c6572206973206e6f7420746f6b656e206f776e6560008201527f72206f7220617070726f76656400000000000000000000000000000000000000602082015250565b7f796f752063616e277420696e6372656173652074686520726570206f6620796f60008201527f7572206f776e206964656e746974790000000000000000000000000000000000602082015250565b7f596f75206e65656420746f2070617920746f20696e637265617365207265707560008201527f746174696f6e0000000000000000000000000000000000000000000000000000602082015250565b7f455243373231456e756d657261626c653a206f776e657220696e646578206f7560008201527f74206f6620626f756e6473000000000000000000000000000000000000000000602082015250565b7f4552433732313a207472616e7366657220746f206e6f6e20455243373231526560008201527f63656976657220696d706c656d656e7465720000000000000000000000000000602082015250565b7f4f776e61626c653a206e6577206f776e657220697320746865207a65726f206160008201527f6464726573730000000000000000000000000000000000000000000000000000602082015250565b7f5472616e73666572206661696c65640000000000000000000000000000000000600082015250565b7f4552433732313a207472616e736665722066726f6d20696e636f72726563742060008201527f6f776e6572000000000000000000000000000000000000000000000000000000602082015250565b7f4552433732313a20746f6b656e20616c7265616479206d696e74656400000000600082015250565b7f4552433732313a207472616e7366657220746f20746865207a65726f2061646460008201527f7265737300000000000000000000000000000000000000000000000000000000602082015250565b7f4552433732313a20617070726f766520746f2063616c6c657200000000000000600082015250565b7f4552433732313a2061646472657373207a65726f206973206e6f74206120766160008201527f6c6964206f776e65720000000000000000000000000000000000000000000000602082015250565b7f45524337323155524953746f726167653a2055524920736574206f66206e6f6e60008201527f6578697374656e7420746f6b656e000000000000000000000000000000000000602082015250565b7f796f752063616e206f6e6c792072617465206f6e636500000000000000000000600082015250565b7f456d707479207572690000000000000000000000000000000000000000000000600082015250565b7f4552433732313a206d696e7420746f20746865207a65726f2061646472657373600082015250565b7f4f776e61626c653a2063616c6c6572206973206e6f7420746865206f776e6572600082015250565b7f4552433732313a20696e76616c696420746f6b656e2049440000000000000000600082015250565b7f4552433732313a20617070726f76616c20746f2063757272656e74206f776e6560008201527f7200000000000000000000000000000000000000000000000000000000000000602082015250565b50565b7f4552433732313a20617070726f76652063616c6c6572206973206e6f7420746f60008201527f6b656e206f776e6572206f7220617070726f76656420666f7220616c6c000000602082015250565b7f455243373231456e756d657261626c653a20676c6f62616c20696e646578206f60008201527f7574206f6620626f756e64730000000000000000000000000000000000000000602082015250565b7f455243373231456e756d657261626c653a20636f6e736563757469766520747260008201527f616e7366657273206e6f7420737570706f727465640000000000000000000000602082015250565b6140f881613952565b811461410357600080fd5b50565b61410f81613964565b811461411a57600080fd5b50565b61412681613970565b811461413157600080fd5b50565b61413d816139bc565b811461414857600080fd5b5056fea264697066735822122031acadad3715740381a52297bd4d5c82f862690fe2682fae8f7171d0396ea31a64736f6c63430008040033",
  "linkReferences": {},
  "deployedLinkReferences": {}
}