{
  "_format": "hh-sol-artifact-1",
  "contractName": "MyNFT",
  "sourceName": "contracts/MyNFT.sol",
  "abi": [
    {
      "inputs": [],
      "stateMutability": "nonpayable",
      "type": "constructor"
    },
    {
      "anonymous": false,
      "inputs": [
        {
          "indexed": true,
          "internalType": "address",
          "name": "owner",
          "type": "address"
        },
        {
          "indexed": true,
          "internalType": "address",
          "name": "approved",
          "type": "address"
        },
        {
          "indexed": true,
          "internalType": "uint256",
          "name": "tokenId",
          "type": "uint256"
        }
      ],
      "name": "Approval",
      "type": "event"
    },
    {
      "anonymous": false,
      "inputs": [
        {
          "indexed": true,
          "internalType": "address",
          "name": "owner",
          "type": "address"
        },
        {
          "indexed": true,
          "internalType": "address",
          "name": "operator",
          "type": "address"
        },
        {
          "indexed": false,
          "internalType": "bool",
          "name": "approved",
          "type": "bool"
        }
      ],
      "name": "ApprovalForAll",
      "type": "event"
    },
    {
      "anonymous": false,
      "inputs": [
        {
          "indexed": true,
          "internalType": "address",
          "name": "previousOwner",
          "type": "address"
        },
        {
          "indexed": true,
          "internalType": "address",
          "name": "newOwner",
          "type": "address"
        }
      ],
      "name": "OwnershipTransferred",
      "type": "event"
    },
    {
      "anonymous": false,
      "inputs": [
        {
          "indexed": true,
          "internalType": "address",
          "name": "from",
          "type": "address"
        },
        {
          "indexed": true,
          "internalType": "address",
          "name": "to",
          "type": "address"
        },
        {
          "indexed": true,
          "internalType": "uint256",
          "name": "tokenId",
          "type": "uint256"
        }
      ],
      "name": "Transfer",
      "type": "event"
    },
    {
      "inputs": [
        {
          "internalType": "address",
          "name": "to",
          "type": "address"
        },
        {
          "internalType": "uint256",
          "name": "tokenId",
          "type": "uint256"
        }
      ],
      "name": "approve",
      "outputs": [],
      "stateMutability": "nonpayable",
      "type": "function"
    },
    {
      "inputs": [
        {
          "internalType": "address",
          "name": "owner",
          "type": "address"
        }
      ],
      "name": "balanceOf",
      "outputs": [
        {
          "internalType": "uint256",
          "name": "",
          "type": "uint256"
        }
      ],
      "stateMutability": "view",
      "type": "function"
    },
    {
      "inputs": [
        {
          "internalType": "uint256",
          "name": "tokenId",
          "type": "uint256"
        }
      ],
      "name": "getApproved",
      "outputs": [
        {
          "internalType": "address",
          "name": "",
          "type": "address"
        }
      ],
      "stateMutability": "view",
      "type": "function"
    },
    {
      "inputs": [
        {
          "internalType": "uint256",
          "name": "_index",
          "type": "uint256"
        }
      ],
      "name": "getIdentities",
      "outputs": [
        {
          "components": [
            {
              "internalType": "uint256",
              "name": "tokenId",
              "type": "uint256"
            },
            {
              "internalType": "address payable",
              "name": "owner",
              "type": "address"
            },
            {
              "internalType": "uint256",
              "name": "reputation",
              "type": "uint256"
            }
          ],
          "internalType": "struct MyNFT.NFT",
          "name": "",
          "type": "tuple"
        }
      ],
      "stateMutability": "view",
      "type": "function"
    },
    {
      "inputs": [],
      "name": "getNFTlength",
      "outputs": [
        {
          "internalType": "uint256",
          "name": "",
          "type": "uint256"
        }
      ],
      "stateMutability": "view",
      "type": "function"
    },
    {
      "inputs": [
        {
          "internalType": "uint256",
          "name": "_index",
          "type": "uint256"
        }
      ],
      "name": "increaseRep",
      "outputs": [],
      "stateMutability": "payable",
      "type": "function"
    },
    {
      "inputs": [
        {
          "internalType": "address",
          "name": "owner",
          "type": "address"
        },
        {
          "internalType": "address",
          "name": "operator",
          "type": "address"
        }
      ],
      "name": "isApprovedForAll",
      "outputs": [
        {
          "internalType": "bool",
          "name": "",
          "type": "bool"
        }
      ],
      "stateMutability": "view",
      "type": "function"
    },
    {
      "inputs": [
        {
          "internalType": "string",
          "name": "uri",
          "type": "string"
        }
      ],
      "name": "mint",
      "outputs": [],
      "stateMutability": "payable",
      "type": "function"
    },
    {
      "inputs": [
        {
          "internalType": "uint256",
          "name": "_newRepfee",
          "type": "uint256"
        }
      ],
      "name": "modifyRepFee",
      "outputs": [],
      "stateMutability": "nonpayable",
      "type": "function"
    },
    {
      "inputs": [],
      "name": "name",
      "outputs": [
        {
          "internalType": "string",
          "name": "",
          "type": "string"
        }
      ],
      "stateMutability": "view",
      "type": "function"
    },
    {
      "inputs": [],
      "name": "owner",
      "outputs": [
        {
          "internalType": "address",
          "name": "",
          "type": "address"
        }
      ],
      "stateMutability": "view",
      "type": "function"
    },
    {
      "inputs": [
        {
          "internalType": "uint256",
          "name": "tokenId",
          "type": "uint256"
        }
      ],
      "name": "ownerOf",
      "outputs": [
        {
          "internalType": "address",
          "name": "",
          "type": "address"
        }
      ],
      "stateMutability": "view",
      "type": "function"
    },
    {
      "inputs": [],
      "name": "renounceOwnership",
      "outputs": [],
      "stateMutability": "nonpayable",
      "type": "function"
    },
    {
      "inputs": [
        {
          "internalType": "address",
          "name": "from",
          "type": "address"
        },
        {
          "internalType": "address",
          "name": "to",
          "type": "address"
        },
        {
          "internalType": "uint256",
          "name": "tokenId",
          "type": "uint256"
        }
      ],
      "name": "safeTransferFrom",
      "outputs": [],
      "stateMutability": "nonpayable",
      "type": "function"
    },
    {
      "inputs": [
        {
          "internalType": "address",
          "name": "from",
          "type": "address"
        },
        {
          "internalType": "address",
          "name": "to",
          "type": "address"
        },
        {
          "internalType": "uint256",
          "name": "tokenId",
          "type": "uint256"
        },
        {
          "internalType": "bytes",
          "name": "_data",
          "type": "bytes"
        }
      ],
      "name": "safeTransferFrom",
      "outputs": [],
      "stateMutability": "nonpayable",
      "type": "function"
    },
    {
      "inputs": [
        {
          "internalType": "address",
          "name": "operator",
          "type": "address"
        },
        {
          "internalType": "bool",
          "name": "approved",
          "type": "bool"
        }
      ],
      "name": "setApprovalForAll",
      "outputs": [],
      "stateMutability": "nonpayable",
      "type": "function"
    },
    {
      "inputs": [
        {
          "internalType": "bytes4",
          "name": "interfaceId",
          "type": "bytes4"
        }
      ],
      "name": "supportsInterface",
      "outputs": [
        {
          "internalType": "bool",
          "name": "",
          "type": "bool"
        }
      ],
      "stateMutability": "view",
      "type": "function"
    },
    {
      "inputs": [],
      "name": "symbol",
      "outputs": [
        {
          "internalType": "string",
          "name": "",
          "type": "string"
        }
      ],
      "stateMutability": "view",
      "type": "function"
    },
    {
      "inputs": [
        {
          "internalType": "uint256",
          "name": "index",
          "type": "uint256"
        }
      ],
      "name": "tokenByIndex",
      "outputs": [
        {
          "internalType": "uint256",
          "name": "",
          "type": "uint256"
        }
      ],
      "stateMutability": "view",
      "type": "function"
    },
    {
      "inputs": [
        {
          "internalType": "address",
          "name": "owner",
          "type": "address"
        },
        {
          "internalType": "uint256",
          "name": "index",
          "type": "uint256"
        }
      ],
      "name": "tokenOfOwnerByIndex",
      "outputs": [
        {
          "internalType": "uint256",
          "name": "",
          "type": "uint256"
        }
      ],
      "stateMutability": "view",
      "type": "function"
    },
    {
      "inputs": [
        {
          "internalType": "uint256",
          "name": "tokenId",
          "type": "uint256"
        }
      ],
      "name": "tokenURI",
      "outputs": [
        {
          "internalType": "string",
          "name": "",
          "type": "string"
        }
      ],
      "stateMutability": "view",
      "type": "function"
    },
    {
      "inputs": [],
      "name": "totalSupply",
      "outputs": [
        {
          "internalType": "uint256",
          "name": "",
          "type": "uint256"
        }
      ],
      "stateMutability": "view",
      "type": "function"
    },
    {
      "inputs": [
        {
          "internalType": "address",
          "name": "from",
          "type": "address"
        },
        {
          "internalType": "address",
          "name": "to",
          "type": "address"
        },
        {
          "internalType": "uint256",
          "name": "tokenId",
          "type": "uint256"
        }
      ],
      "name": "transferFrom",
      "outputs": [],
      "stateMutability": "nonpayable",
      "type": "function"
    },
    {
      "inputs": [
        {
          "internalType": "address",
          "name": "newOwner",
          "type": "address"
        }
      ],
      "name": "transferOwnership",
      "outputs": [],
      "stateMutability": "nonpayable",
      "type": "function"
    }
  ],
  "bytecode": "0x60806040526702c68af0bb140000600d553480156200001d57600080fd5b506040518060400160405280600c81526020017f43454c4f4944454e5449545900000000000000000000000000000000000000008152506040518060400160405280600481526020017f43494454000000000000000000000000000000000000000000000000000000008152508160009080519060200190620000a2929190620001b2565b508060019080519060200190620000bb929190620001b2565b505050620000de620000d2620000e460201b60201c565b620000ec60201b60201c565b620002c7565b600033905090565b6000600b60009054906101000a900473ffffffffffffffffffffffffffffffffffffffff16905081600b60006101000a81548173ffffffffffffffffffffffffffffffffffffffff021916908373ffffffffffffffffffffffffffffffffffffffff1602179055508173ffffffffffffffffffffffffffffffffffffffff168173ffffffffffffffffffffffffffffffffffffffff167f8be0079c531659141344cd1fd0a4f28419497f9722a3daafe3b4186f6b6457e060405160405180910390a35050565b828054620001c09062000262565b90600052602060002090601f016020900481019282620001e4576000855562000230565b82601f10620001ff57805160ff191683800117855562000230565b8280016001018555821562000230579182015b828111156200022f57825182559160200191906001019062000212565b5b5090506200023f919062000243565b5090565b5b808211156200025e57600081600090555060010162000244565b5090565b600060028204905060018216806200027b57607f821691505b6020821081141562000292576200029162000298565b5b50919050565b7f4e487b7100000000000000000000000000000000000000000000000000000000600052602260045260246000fd5b61422080620002d76000396000f3fe60806040526004361061014b5760003560e01c80638877570f116100b6578063c87b56dd1161006f578063c87b56dd146104a7578063d41daa2b146104e4578063d85d3d271461050f578063e985e9c51461052b578063f2da30db14610568578063f2fde38b146105915761014b565b80638877570f146103a65780638da5cb5b146103c257806395d89b41146103ed578063a22cb46514610418578063aef5280b14610441578063b88d4fde1461047e5761014b565b80632f745c59116101085780632f745c591461027257806342842e0e146102af5780634f6ccce7146102d85780636352211e1461031557806370a0823114610352578063715018a61461038f5761014b565b806301ffc9a71461015057806306fdde031461018d578063081812fc146101b8578063095ea7b3146101f557806318160ddd1461021e57806323b872dd14610249575b600080fd5b34801561015c57600080fd5b5061017760048036038101906101729190612d5c565b6105ba565b604051610184919061337a565b60405180910390f35b34801561019957600080fd5b506101a26105cc565b6040516101af9190613395565b60405180910390f35b3480156101c457600080fd5b506101df60048036038101906101da9190612df3565b61065e565b6040516101ec9190613313565b60405180910390f35b34801561020157600080fd5b5061021c60048036038101906102179190612d20565b6106e3565b005b34801561022a57600080fd5b506102336107fb565b60405161024091906136f2565b60405180910390f35b34801561025557600080fd5b50610270600480360381019061026b9190612c1a565b610808565b005b34801561027e57600080fd5b5061029960048036038101906102949190612d20565b610868565b6040516102a691906136f2565b60405180910390f35b3480156102bb57600080fd5b506102d660048036038101906102d19190612c1a565b61090d565b005b3480156102e457600080fd5b506102ff60048036038101906102fa9190612df3565b61092d565b60405161030c91906136f2565b60405180910390f35b34801561032157600080fd5b5061033c60048036038101906103379190612df3565b6109c4565b6040516103499190613313565b60405180910390f35b34801561035e57600080fd5b5061037960048036038101906103749190612bb5565b610a76565b60405161038691906136f2565b60405180910390f35b34801561039b57600080fd5b506103a4610b2e565b005b6103c060048036038101906103bb9190612df3565b610bb6565b005b3480156103ce57600080fd5b506103d7610e91565b6040516103e49190613313565b60405180910390f35b3480156103f957600080fd5b50610402610ebb565b60405161040f9190613395565b60405180910390f35b34801561042457600080fd5b5061043f600480360381019061043a9190612ce4565b610f4d565b005b34801561044d57600080fd5b5061046860048036038101906104639190612df3565b610f63565b60405161047591906136d7565b60405180910390f35b34801561048a57600080fd5b506104a560048036038101906104a09190612c69565b610ffa565b005b3480156104b357600080fd5b506104ce60048036038101906104c99190612df3565b61105c565b6040516104db9190613395565b60405180910390f35b3480156104f057600080fd5b506104f961106e565b60405161050691906136f2565b60405180910390f35b61052960048036038101906105249190612dae565b61107f565b005b34801561053757600080fd5b50610552600480360381019061054d9190612bde565b6111df565b60405161055f919061337a565b60405180910390f35b34801561057457600080fd5b5061058f600480360381019061058a9190612df3565b611273565b005b34801561059d57600080fd5b506105b860048036038101906105b39190612bb5565b6112f9565b005b60006105c5826113f1565b9050919050565b6060600080546105db90613934565b80601f016020809104026020016040519081016040528092919081815260200182805461060790613934565b80156106545780601f1061062957610100808354040283529160200191610654565b820191906000526020600020905b81548152906001019060200180831161063757829003601f168201915b5050505050905090565b60006106698261146b565b6106a8576040517f08c379a000000000000000000000000000000000000000000000000000000000815260040161069f90613617565b60405180910390fd5b6004600083815260200190815260200160002060009054906101000a900473ffffffffffffffffffffffffffffffffffffffff169050919050565b60006106ee826109c4565b90508073ffffffffffffffffffffffffffffffffffffffff168373ffffffffffffffffffffffffffffffffffffffff16141561075f576040517f08c379a000000000000000000000000000000000000000000000000000000000815260040161075690613677565b60405180910390fd5b8073ffffffffffffffffffffffffffffffffffffffff1661077e6114d7565b73ffffffffffffffffffffffffffffffffffffffff1614806107ad57506107ac816107a76114d7565b6111df565b5b6107ec576040517f08c379a00000000000000000000000000000000000000000000000000000000081526004016107e390613517565b60405180910390fd5b6107f683836114df565b505050565b6000600880549050905090565b6108196108136114d7565b82611598565b610858576040517f08c379a000000000000000000000000000000000000000000000000000000000815260040161084f90613697565b60405180910390fd5b610863838383611676565b505050565b600061087383610a76565b82106108b4576040517f08c379a00000000000000000000000000000000000000000000000000000000081526004016108ab906133f7565b60405180910390fd5b600660008473ffffffffffffffffffffffffffffffffffffffff1673ffffffffffffffffffffffffffffffffffffffff168152602001908152602001600020600083815260200190815260200160002054905092915050565b61092883838360405180602001604052806000815250610ffa565b505050565b60006109376107fb565b8210610978576040517f08c379a000000000000000000000000000000000000000000000000000000000815260040161096f906136b7565b60405180910390fd5b600882815481106109b2577f4e487b7100000000000000000000000000000000000000000000000000000000600052603260045260246000fd5b90600052602060002001549050919050565b6000806002600084815260200190815260200160002060009054906101000a900473ffffffffffffffffffffffffffffffffffffffff169050600073ffffffffffffffffffffffffffffffffffffffff168173ffffffffffffffffffffffffffffffffffffffff161415610a6d576040517f08c379a0000000000000000000000000000000000000000000000000000000008152600401610a6490613557565b60405180910390fd5b80915050919050565b60008073ffffffffffffffffffffffffffffffffffffffff168273ffffffffffffffffffffffffffffffffffffffff161415610ae7576040517f08c379a0000000000000000000000000000000000000000000000000000000008152600401610ade90613537565b60405180910390fd5b600360008373ffffffffffffffffffffffffffffffffffffffff1673ffffffffffffffffffffffffffffffffffffffff168152602001908152602001600020549050919050565b610b366114d7565b73ffffffffffffffffffffffffffffffffffffffff16610b54610e91565b73ffffffffffffffffffffffffffffffffffffffff1614610baa576040517f08c379a0000000000000000000000000000000000000000000000000000000008152600401610ba190613637565b60405180910390fd5b610bb460006118dd565b565b600d543414610bfa576040517f08c379a0000000000000000000000000000000000000000000000000000000008152600401610bf1906133d7565b60405180910390fd5b600e600082815260200190815260200160002060010160009054906101000a900473ffffffffffffffffffffffffffffffffffffffff1673ffffffffffffffffffffffffffffffffffffffff163373ffffffffffffffffffffffffffffffffffffffff161415610c9f576040517f08c379a0000000000000000000000000000000000000000000000000000000008152600401610c96906133b7565b60405180910390fd5b60001515600f600083815260200190815260200160002060003373ffffffffffffffffffffffffffffffffffffffff1673ffffffffffffffffffffffffffffffffffffffff16815260200190815260200160002060009054906101000a900460ff16151514610d43576040517f08c379a0000000000000000000000000000000000000000000000000000000008152600401610d3a90613597565b60405180910390fd5b600e60008281526020019081526020016000206002016000815480929190610d6a90613997565b91905055506001600f600083815260200190815260200160002060003373ffffffffffffffffffffffffffffffffffffffff1673ffffffffffffffffffffffffffffffffffffffff16815260200190815260200160002060006101000a81548160ff0219169083151502179055506000610de2610e91565b73ffffffffffffffffffffffffffffffffffffffff16600d54604051610e07906132fe565b60006040518083038185875af1925050503d8060008114610e44576040519150601f19603f3d011682016040523d82523d6000602084013e610e49565b606091505b5050905080610e8d576040517f08c379a0000000000000000000000000000000000000000000000000000000008152600401610e8490613457565b60405180910390fd5b5050565b6000600b60009054906101000a900473ffffffffffffffffffffffffffffffffffffffff16905090565b606060018054610eca90613934565b80601f0160208091040260200160405190810160405280929190818152602001828054610ef690613934565b8015610f435780601f10610f1857610100808354040283529160200191610f43565b820191906000526020600020905b815481529060010190602001808311610f2657829003601f168201915b5050505050905090565b610f5f610f586114d7565b83836119a3565b5050565b610f6b6129c0565b600e6000838152602001908152602001600020604051806060016040529081600082015481526020016001820160009054906101000a900473ffffffffffffffffffffffffffffffffffffffff1673ffffffffffffffffffffffffffffffffffffffff1673ffffffffffffffffffffffffffffffffffffffff1681526020016002820154815250509050919050565b61100b6110056114d7565b83611598565b61104a576040517f08c379a000000000000000000000000000000000000000000000000000000000815260040161104190613697565b60405180910390fd5b61105684848484611b10565b50505050565b606061106782611b6c565b9050919050565b600061107a600c611cbe565b905090565b600082829050116110c5576040517f08c379a00000000000000000000000000000000000000000000000000000000081526004016110bc906135b7565b60405180910390fd5b6110cf600c611ccc565b60006110db600c611cbe565b90506110e73382611ce2565b6111358184848080601f016020809104026020016040519081016040528093929190818152602001838380828437600081840152601f19601f82011690508083019250505050505050611d00565b600060405180606001604052808381526020013373ffffffffffffffffffffffffffffffffffffffff16815260200182815250600e60008481526020019081526020016000206000820151816000015560208201518160010160006101000a81548173ffffffffffffffffffffffffffffffffffffffff021916908373ffffffffffffffffffffffffffffffffffffffff1602179055506040820151816002015590505050505050565b6000600560008473ffffffffffffffffffffffffffffffffffffffff1673ffffffffffffffffffffffffffffffffffffffff16815260200190815260200160002060008373ffffffffffffffffffffffffffffffffffffffff1673ffffffffffffffffffffffffffffffffffffffff16815260200190815260200160002060009054906101000a900460ff16905092915050565b61127b6114d7565b73ffffffffffffffffffffffffffffffffffffffff16611299610e91565b73ffffffffffffffffffffffffffffffffffffffff16146112ef576040517f08c379a00000000000000000000000000000000000000000000000000000000081526004016112e690613637565b60405180910390fd5b80600d8190555050565b6113016114d7565b73ffffffffffffffffffffffffffffffffffffffff1661131f610e91565b73ffffffffffffffffffffffffffffffffffffffff1614611375576040517f08c379a000000000000000000000000000000000000000000000000000000000815260040161136c90613637565b60405180910390fd5b600073ffffffffffffffffffffffffffffffffffffffff168173ffffffffffffffffffffffffffffffffffffffff1614156113e5576040517f08c379a00000000000000000000000000000000000000000000000000000000081526004016113dc90613437565b60405180910390fd5b6113ee816118dd565b50565b60007f780e9d63000000000000000000000000000000000000000000000000000000007bffffffffffffffffffffffffffffffffffffffffffffffffffffffff1916827bffffffffffffffffffffffffffffffffffffffffffffffffffffffff19161480611464575061146382611d74565b5b9050919050565b60008073ffffffffffffffffffffffffffffffffffffffff166002600084815260200190815260200160002060009054906101000a900473ffffffffffffffffffffffffffffffffffffffff1673ffffffffffffffffffffffffffffffffffffffff1614159050919050565b600033905090565b816004600083815260200190815260200160002060006101000a81548173ffffffffffffffffffffffffffffffffffffffff021916908373ffffffffffffffffffffffffffffffffffffffff160217905550808273ffffffffffffffffffffffffffffffffffffffff16611552836109c4565b73ffffffffffffffffffffffffffffffffffffffff167f8c5be1e5ebec7d5bd14f71427d1e84f3dd0314c0f7b2291e5b200ac8c7c3b92560405160405180910390a45050565b60006115a38261146b565b6115e2576040517f08c379a00000000000000000000000000000000000000000000000000000000081526004016115d9906134f7565b60405180910390fd5b60006115ed836109c4565b90508073ffffffffffffffffffffffffffffffffffffffff168473ffffffffffffffffffffffffffffffffffffffff16148061165c57508373ffffffffffffffffffffffffffffffffffffffff166116448461065e565b73ffffffffffffffffffffffffffffffffffffffff16145b8061166d575061166c81856111df565b5b91505092915050565b8273ffffffffffffffffffffffffffffffffffffffff16611696826109c4565b73ffffffffffffffffffffffffffffffffffffffff16146116ec576040517f08c379a00000000000000000000000000000000000000000000000000000000081526004016116e390613477565b60405180910390fd5b600073ffffffffffffffffffffffffffffffffffffffff168273ffffffffffffffffffffffffffffffffffffffff16141561175c576040517f08c379a0000000000000000000000000000000000000000000000000000000008152600401611753906134b7565b60405180910390fd5b611767838383611e56565b6117726000826114df565b6001600360008573ffffffffffffffffffffffffffffffffffffffff1673ffffffffffffffffffffffffffffffffffffffff16815260200190815260200160002060008282546117c29190613838565b925050819055506001600360008473ffffffffffffffffffffffffffffffffffffffff1673ffffffffffffffffffffffffffffffffffffffff168152602001908152602001600020600082825461181991906137b1565b92505081905550816002600083815260200190815260200160002060006101000a81548173ffffffffffffffffffffffffffffffffffffffff021916908373ffffffffffffffffffffffffffffffffffffffff160217905550808273ffffffffffffffffffffffffffffffffffffffff168473ffffffffffffffffffffffffffffffffffffffff167fddf252ad1be2c89b69c2b068fc378daa952ba7f163c4a11628f55a4df523b3ef60405160405180910390a46118d8838383611e66565b505050565b6000600b60009054906101000a900473ffffffffffffffffffffffffffffffffffffffff16905081600b60006101000a81548173ffffffffffffffffffffffffffffffffffffffff021916908373ffffffffffffffffffffffffffffffffffffffff1602179055508173ffffffffffffffffffffffffffffffffffffffff168173ffffffffffffffffffffffffffffffffffffffff167f8be0079c531659141344cd1fd0a4f28419497f9722a3daafe3b4186f6b6457e060405160405180910390a35050565b8173ffffffffffffffffffffffffffffffffffffffff168373ffffffffffffffffffffffffffffffffffffffff161415611a12576040517f08c379a0000000000000000000000000000000000000000000000000000000008152600401611a09906134d7565b60405180910390fd5b80600560008573ffffffffffffffffffffffffffffffffffffffff1673ffffffffffffffffffffffffffffffffffffffff16815260200190815260200160002060008473ffffffffffffffffffffffffffffffffffffffff1673ffffffffffffffffffffffffffffffffffffffff16815260200190815260200160002060006101000a81548160ff0219169083151502179055508173ffffffffffffffffffffffffffffffffffffffff168373ffffffffffffffffffffffffffffffffffffffff167f17307eab39ab6107e8899845ad3d59bd9653f200f220920489ca2b5937696c3183604051611b03919061337a565b60405180910390a3505050565b611b1b848484611676565b611b2784848484611e6b565b611b66576040517f08c379a0000000000000000000000000000000000000000000000000000000008152600401611b5d90613417565b60405180910390fd5b50505050565b6060611b778261146b565b611bb6576040517f08c379a0000000000000000000000000000000000000000000000000000000008152600401611bad906135f7565b60405180910390fd5b6000600a60008481526020019081526020016000208054611bd690613934565b80601f0160208091040260200160405190810160405280929190818152602001828054611c0290613934565b8015611c4f5780601f10611c2457610100808354040283529160200191611c4f565b820191906000526020600020905b815481529060010190602001808311611c3257829003601f168201915b505050505090506000611c60612002565b9050600081511415611c76578192505050611cb9565b600082511115611cab578082604051602001611c939291906132da565b60405160208183030381529060405292505050611cb9565b611cb484612019565b925050505b919050565b600081600001549050919050565b6001816000016000828254019250508190555050565b611cfc8282604051806020016040528060008152506120c0565b5050565b611d098261146b565b611d48576040517f08c379a0000000000000000000000000000000000000000000000000000000008152600401611d3f90613577565b60405180910390fd5b80600a60008481526020019081526020016000209080519060200190611d6f9291906129f7565b505050565b60007f80ac58cd000000000000000000000000000000000000000000000000000000007bffffffffffffffffffffffffffffffffffffffffffffffffffffffff1916827bffffffffffffffffffffffffffffffffffffffffffffffffffffffff19161480611e3f57507f5b5e139f000000000000000000000000000000000000000000000000000000007bffffffffffffffffffffffffffffffffffffffffffffffffffffffff1916827bffffffffffffffffffffffffffffffffffffffffffffffffffffffff1916145b80611e4f5750611e4e8261211b565b5b9050919050565b611e61838383612185565b505050565b505050565b6000611e8c8473ffffffffffffffffffffffffffffffffffffffff16612299565b15611ff5578373ffffffffffffffffffffffffffffffffffffffff1663150b7a02611eb56114d7565b8786866040518563ffffffff1660e01b8152600401611ed7949392919061332e565b602060405180830381600087803b158015611ef157600080fd5b505af1925050508015611f2257506040513d601f19601f82011682018060405250810190611f1f9190612d85565b60015b611fa5573d8060008114611f52576040519150601f19603f3d011682016040523d82523d6000602084013e611f57565b606091505b50600081511415611f9d576040517f08c379a0000000000000000000000000000000000000000000000000000000008152600401611f9490613417565b60405180910390fd5b805181602001fd5b63150b7a0260e01b7bffffffffffffffffffffffffffffffffffffffffffffffffffffffff1916817bffffffffffffffffffffffffffffffffffffffffffffffffffffffff191614915050611ffa565b600190505b949350505050565b606060405180602001604052806000815250905090565b60606120248261146b565b612063576040517f08c379a000000000000000000000000000000000000000000000000000000000815260040161205a90613657565b60405180910390fd5b600061206d612002565b9050600081511161208d57604051806020016040528060008152506120b8565b80612097846122bc565b6040516020016120a89291906132da565b6040516020818303038152906040525b915050919050565b6120ca8383612469565b6120d76000848484611e6b565b612116576040517f08c379a000000000000000000000000000000000000000000000000000000000815260040161210d90613417565b60405180910390fd5b505050565b60007f01ffc9a7000000000000000000000000000000000000000000000000000000007bffffffffffffffffffffffffffffffffffffffffffffffffffffffff1916827bffffffffffffffffffffffffffffffffffffffffffffffffffffffff1916149050919050565b612190838383612643565b600073ffffffffffffffffffffffffffffffffffffffff168373ffffffffffffffffffffffffffffffffffffffff1614156121d3576121ce81612648565b612212565b8173ffffffffffffffffffffffffffffffffffffffff168373ffffffffffffffffffffffffffffffffffffffff1614612211576122108382612691565b5b5b600073ffffffffffffffffffffffffffffffffffffffff168273ffffffffffffffffffffffffffffffffffffffff16141561225557612250816127fe565b612294565b8273ffffffffffffffffffffffffffffffffffffffff168273ffffffffffffffffffffffffffffffffffffffff1614612293576122928282612941565b5b5b505050565b6000808273ffffffffffffffffffffffffffffffffffffffff163b119050919050565b60606000821415612304576040518060400160405280600181526020017f30000000000000000000000000000000000000000000000000000000000000008152509050612464565b600082905060005b6000821461233657808061231f90613997565b915050600a8261232f9190613807565b915061230c565b60008167ffffffffffffffff811115612378577f4e487b7100000000000000000000000000000000000000000000000000000000600052604160045260246000fd5b6040519080825280601f01601f1916602001820160405280156123aa5781602001600182028036833780820191505090505b5090505b6000851461245d576001826123c39190613838565b9150600a856123d291906139e0565b60306123de91906137b1565b60f81b81838151811061241a577f4e487b7100000000000000000000000000000000000000000000000000000000600052603260045260246000fd5b60200101907effffffffffffffffffffffffffffffffffffffffffffffffffffffffffffff1916908160001a905350600a856124569190613807565b94506123ae565b8093505050505b919050565b600073ffffffffffffffffffffffffffffffffffffffff168273ffffffffffffffffffffffffffffffffffffffff1614156124d9576040517f08c379a00000000000000000000000000000000000000000000000000000000081526004016124d0906135d7565b60405180910390fd5b6124e28161146b565b15612522576040517f08c379a000000000000000000000000000000000000000000000000000000000815260040161251990613497565b60405180910390fd5b61252e60008383611e56565b6001600360008473ffffffffffffffffffffffffffffffffffffffff1673ffffffffffffffffffffffffffffffffffffffff168152602001908152602001600020600082825461257e91906137b1565b92505081905550816002600083815260200190815260200160002060006101000a81548173ffffffffffffffffffffffffffffffffffffffff021916908373ffffffffffffffffffffffffffffffffffffffff160217905550808273ffffffffffffffffffffffffffffffffffffffff16600073ffffffffffffffffffffffffffffffffffffffff167fddf252ad1be2c89b69c2b068fc378daa952ba7f163c4a11628f55a4df523b3ef60405160405180910390a461263f60008383611e66565b5050565b505050565b6008805490506009600083815260200190815260200160002081905550600881908060018154018082558091505060019003906000526020600020016000909190919091505550565b6000600161269e84610a76565b6126a89190613838565b905060006007600084815260200190815260200160002054905081811461278d576000600660008673ffffffffffffffffffffffffffffffffffffffff1673ffffffffffffffffffffffffffffffffffffffff168152602001908152602001600020600084815260200190815260200160002054905080600660008773ffffffffffffffffffffffffffffffffffffffff1673ffffffffffffffffffffffffffffffffffffffff168152602001908152602001600020600084815260200190815260200160002081905550816007600083815260200190815260200160002081905550505b6007600084815260200190815260200160002060009055600660008573ffffffffffffffffffffffffffffffffffffffff1673ffffffffffffffffffffffffffffffffffffffff16815260200190815260200160002060008381526020019081526020016000206000905550505050565b600060016008805490506128129190613838565b9050600060096000848152602001908152602001600020549050600060088381548110612868577f4e487b7100000000000000000000000000000000000000000000000000000000600052603260045260246000fd5b9060005260206000200154905080600883815481106128b0577f4e487b7100000000000000000000000000000000000000000000000000000000600052603260045260246000fd5b906000526020600020018190555081600960008381526020019081526020016000208190555060096000858152602001908152602001600020600090556008805480612925577f4e487b7100000000000000000000000000000000000000000000000000000000600052603160045260246000fd5b6001900381819060005260206000200160009055905550505050565b600061294c83610a76565b905081600660008573ffffffffffffffffffffffffffffffffffffffff1673ffffffffffffffffffffffffffffffffffffffff168152602001908152602001600020600083815260200190815260200160002081905550806007600084815260200190815260200160002081905550505050565b604051806060016040528060008152602001600073ffffffffffffffffffffffffffffffffffffffff168152602001600081525090565b828054612a0390613934565b90600052602060002090601f016020900481019282612a255760008555612a6c565b82601f10612a3e57805160ff1916838001178555612a6c565b82800160010185558215612a6c579182015b82811115612a6b578251825591602001919060010190612a50565b5b509050612a799190612a7d565b5090565b5b80821115612a96576000816000905550600101612a7e565b5090565b6000612aad612aa884613732565b61370d565b905082815260208101848484011115612ac557600080fd5b612ad08482856138f2565b509392505050565b600081359050612ae78161418e565b92915050565b600081359050612afc816141a5565b92915050565b600081359050612b11816141bc565b92915050565b600081519050612b26816141bc565b92915050565b600082601f830112612b3d57600080fd5b8135612b4d848260208601612a9a565b91505092915050565b60008083601f840112612b6857600080fd5b8235905067ffffffffffffffff811115612b8157600080fd5b602083019150836001820283011115612b9957600080fd5b9250929050565b600081359050612baf816141d3565b92915050565b600060208284031215612bc757600080fd5b6000612bd584828501612ad8565b91505092915050565b60008060408385031215612bf157600080fd5b6000612bff85828601612ad8565b9250506020612c1085828601612ad8565b9150509250929050565b600080600060608486031215612c2f57600080fd5b6000612c3d86828701612ad8565b9350506020612c4e86828701612ad8565b9250506040612c5f86828701612ba0565b9150509250925092565b60008060008060808587031215612c7f57600080fd5b6000612c8d87828801612ad8565b9450506020612c9e87828801612ad8565b9350506040612caf87828801612ba0565b925050606085013567ffffffffffffffff811115612ccc57600080fd5b612cd887828801612b2c565b91505092959194509250565b60008060408385031215612cf757600080fd5b6000612d0585828601612ad8565b9250506020612d1685828601612aed565b9150509250929050565b60008060408385031215612d3357600080fd5b6000612d4185828601612ad8565b9250506020612d5285828601612ba0565b9150509250929050565b600060208284031215612d6e57600080fd5b6000612d7c84828501612b02565b91505092915050565b600060208284031215612d9757600080fd5b6000612da584828501612b17565b91505092915050565b60008060208385031215612dc157600080fd5b600083013567ffffffffffffffff811115612ddb57600080fd5b612de785828601612b56565b92509250509250929050565b600060208284031215612e0557600080fd5b6000612e1384828501612ba0565b91505092915050565b612e258161387e565b82525050565b612e348161386c565b82525050565b612e4381613890565b82525050565b6000612e5482613763565b612e5e8185613779565b9350612e6e818560208601613901565b612e7781613acd565b840191505092915050565b6000612e8d8261376e565b612e978185613795565b9350612ea7818560208601613901565b612eb081613acd565b840191505092915050565b6000612ec68261376e565b612ed081856137a6565b9350612ee0818560208601613901565b80840191505092915050565b6000612ef9602f83613795565b9150612f0482613ade565b604082019050919050565b6000612f1c602683613795565b9150612f2782613b2d565b604082019050919050565b6000612f3f602b83613795565b9150612f4a82613b7c565b604082019050919050565b6000612f62603283613795565b9150612f6d82613bcb565b604082019050919050565b6000612f85602683613795565b9150612f9082613c1a565b604082019050919050565b6000612fa8600f83613795565b9150612fb382613c69565b602082019050919050565b6000612fcb602583613795565b9150612fd682613c92565b604082019050919050565b6000612fee601c83613795565b9150612ff982613ce1565b602082019050919050565b6000613011602483613795565b915061301c82613d0a565b604082019050919050565b6000613034601983613795565b915061303f82613d59565b602082019050919050565b6000613057602c83613795565b915061306282613d82565b604082019050919050565b600061307a603883613795565b915061308582613dd1565b604082019050919050565b600061309d602a83613795565b91506130a882613e20565b604082019050919050565b60006130c0602983613795565b91506130cb82613e6f565b604082019050919050565b60006130e3602e83613795565b91506130ee82613ebe565b604082019050919050565b6000613106601683613795565b915061311182613f0d565b602082019050919050565b6000613129600983613795565b915061313482613f36565b602082019050919050565b600061314c602083613795565b915061315782613f5f565b602082019050919050565b600061316f603183613795565b915061317a82613f88565b604082019050919050565b6000613192602c83613795565b915061319d82613fd7565b604082019050919050565b60006131b5602083613795565b91506131c082614026565b602082019050919050565b60006131d8602f83613795565b91506131e38261404f565b604082019050919050565b60006131fb602183613795565b91506132068261409e565b604082019050919050565b600061321e60008361378a565b9150613229826140ed565b600082019050919050565b6000613241603183613795565b915061324c826140f0565b604082019050919050565b6000613264602c83613795565b915061326f8261413f565b604082019050919050565b60608201600082015161329060008501826132bc565b5060208201516132a36020850182612e1c565b5060408201516132b660408501826132bc565b50505050565b6132c5816138e8565b82525050565b6132d4816138e8565b82525050565b60006132e68285612ebb565b91506132f28284612ebb565b91508190509392505050565b600061330982613211565b9150819050919050565b60006020820190506133286000830184612e2b565b92915050565b60006080820190506133436000830187612e2b565b6133506020830186612e2b565b61335d60408301856132cb565b818103606083015261336f8184612e49565b905095945050505050565b600060208201905061338f6000830184612e3a565b92915050565b600060208201905081810360008301526133af8184612e82565b905092915050565b600060208201905081810360008301526133d081612eec565b9050919050565b600060208201905081810360008301526133f081612f0f565b9050919050565b6000602082019050818103600083015261341081612f32565b9050919050565b6000602082019050818103600083015261343081612f55565b9050919050565b6000602082019050818103600083015261345081612f78565b9050919050565b6000602082019050818103600083015261347081612f9b565b9050919050565b6000602082019050818103600083015261349081612fbe565b9050919050565b600060208201905081810360008301526134b081612fe1565b9050919050565b600060208201905081810360008301526134d081613004565b9050919050565b600060208201905081810360008301526134f081613027565b9050919050565b600060208201905081810360008301526135108161304a565b9050919050565b600060208201905081810360008301526135308161306d565b9050919050565b6000602082019050818103600083015261355081613090565b9050919050565b60006020820190508181036000830152613570816130b3565b9050919050565b60006020820190508181036000830152613590816130d6565b9050919050565b600060208201905081810360008301526135b0816130f9565b9050919050565b600060208201905081810360008301526135d08161311c565b9050919050565b600060208201905081810360008301526135f08161313f565b9050919050565b6000602082019050818103600083015261361081613162565b9050919050565b6000602082019050818103600083015261363081613185565b9050919050565b60006020820190508181036000830152613650816131a8565b9050919050565b60006020820190508181036000830152613670816131cb565b9050919050565b60006020820190508181036000830152613690816131ee565b9050919050565b600060208201905081810360008301526136b081613234565b9050919050565b600060208201905081810360008301526136d081613257565b9050919050565b60006060820190506136ec600083018461327a565b92915050565b600060208201905061370760008301846132cb565b92915050565b6000613717613728565b90506137238282613966565b919050565b6000604051905090565b600067ffffffffffffffff82111561374d5761374c613a9e565b5b61375682613acd565b9050602081019050919050565b600081519050919050565b600081519050919050565b600082825260208201905092915050565b600081905092915050565b600082825260208201905092915050565b600081905092915050565b60006137bc826138e8565b91506137c7836138e8565b9250827fffffffffffffffffffffffffffffffffffffffffffffffffffffffffffffffff038211156137fc576137fb613a11565b5b828201905092915050565b6000613812826138e8565b915061381d836138e8565b92508261382d5761382c613a40565b5b828204905092915050565b6000613843826138e8565b915061384e836138e8565b92508282101561386157613860613a11565b5b828203905092915050565b6000613877826138c8565b9050919050565b6000613889826138c8565b9050919050565b60008115159050919050565b60007fffffffff0000000000000000000000000000000000000000000000000000000082169050919050565b600073ffffffffffffffffffffffffffffffffffffffff82169050919050565b6000819050919050565b82818337600083830152505050565b60005b8381101561391f578082015181840152602081019050613904565b8381111561392e576000848401525b50505050565b6000600282049050600182168061394c57607f821691505b602082108114156139605761395f613a6f565b5b50919050565b61396f82613acd565b810181811067ffffffffffffffff8211171561398e5761398d613a9e565b5b80604052505050565b60006139a2826138e8565b91507fffffffffffffffffffffffffffffffffffffffffffffffffffffffffffffffff8214156139d5576139d4613a11565b5b600182019050919050565b60006139eb826138e8565b91506139f6836138e8565b925082613a0657613a05613a40565b5b828206905092915050565b7f4e487b7100000000000000000000000000000000000000000000000000000000600052601160045260246000fd5b7f4e487b7100000000000000000000000000000000000000000000000000000000600052601260045260246000fd5b7f4e487b7100000000000000000000000000000000000000000000000000000000600052602260045260246000fd5b7f4e487b7100000000000000000000000000000000000000000000000000000000600052604160045260246000fd5b6000601f19601f8301169050919050565b7f796f752063616e277420696e6372656173652074686520726570206f6620796f60008201527f7572206f776e206964656e746974790000000000000000000000000000000000602082015250565b7f596f75206e65656420746f2070617920746f20696e637265617365207265707560008201527f746174696f6e0000000000000000000000000000000000000000000000000000602082015250565b7f455243373231456e756d657261626c653a206f776e657220696e646578206f7560008201527f74206f6620626f756e6473000000000000000000000000000000000000000000602082015250565b7f4552433732313a207472616e7366657220746f206e6f6e20455243373231526560008201527f63656976657220696d706c656d656e7465720000000000000000000000000000602082015250565b7f4f776e61626c653a206e6577206f776e657220697320746865207a65726f206160008201527f6464726573730000000000000000000000000000000000000000000000000000602082015250565b7f5472616e73666572206661696c65640000000000000000000000000000000000600082015250565b7f4552433732313a207472616e736665722066726f6d20696e636f72726563742060008201527f6f776e6572000000000000000000000000000000000000000000000000000000602082015250565b7f4552433732313a20746f6b656e20616c7265616479206d696e74656400000000600082015250565b7f4552433732313a207472616e7366657220746f20746865207a65726f2061646460008201527f7265737300000000000000000000000000000000000000000000000000000000602082015250565b7f4552433732313a20617070726f766520746f2063616c6c657200000000000000600082015250565b7f4552433732313a206f70657261746f7220717565727920666f72206e6f6e657860008201527f697374656e7420746f6b656e0000000000000000000000000000000000000000602082015250565b7f4552433732313a20617070726f76652063616c6c6572206973206e6f74206f7760008201527f6e6572206e6f7220617070726f76656420666f7220616c6c0000000000000000602082015250565b7f4552433732313a2062616c616e636520717565727920666f7220746865207a6560008201527f726f206164647265737300000000000000000000000000000000000000000000602082015250565b7f4552433732313a206f776e657220717565727920666f72206e6f6e657869737460008201527f656e7420746f6b656e0000000000000000000000000000000000000000000000602082015250565b7f45524337323155524953746f726167653a2055524920736574206f66206e6f6e60008201527f6578697374656e7420746f6b656e000000000000000000000000000000000000602082015250565b7f796f752063616e206f6e6c792072617465206f6e636500000000000000000000600082015250565b7f456d707479207572690000000000000000000000000000000000000000000000600082015250565b7f4552433732313a206d696e7420746f20746865207a65726f2061646472657373600082015250565b7f45524337323155524953746f726167653a2055524920717565727920666f722060008201527f6e6f6e6578697374656e7420746f6b656e000000000000000000000000000000602082015250565b7f4552433732313a20617070726f76656420717565727920666f72206e6f6e657860008201527f697374656e7420746f6b656e0000000000000000000000000000000000000000602082015250565b7f4f776e61626c653a2063616c6c6572206973206e6f7420746865206f776e6572600082015250565b7f4552433732314d657461646174613a2055524920717565727920666f72206e6f60008201527f6e6578697374656e7420746f6b656e0000000000000000000000000000000000602082015250565b7f4552433732313a20617070726f76616c20746f2063757272656e74206f776e6560008201527f7200000000000000000000000000000000000000000000000000000000000000602082015250565b50565b7f4552433732313a207472616e736665722063616c6c6572206973206e6f74206f60008201527f776e6572206e6f7220617070726f766564000000000000000000000000000000602082015250565b7f455243373231456e756d657261626c653a20676c6f62616c20696e646578206f60008201527f7574206f6620626f756e64730000000000000000000000000000000000000000602082015250565b6141978161386c565b81146141a257600080fd5b50565b6141ae81613890565b81146141b957600080fd5b50565b6141c58161389c565b81146141d057600080fd5b50565b6141dc816138e8565b81146141e757600080fd5b5056fea26469706673582212204ba9504789a57fb68dbc21e12f1d2c9386dec3870376150cb41b6e80110b653464736f6c63430008040033",
  "linkReferences": {},
  "deployedLinkReferences": {}
}