{
  "_format": "hh-sol-artifact-1",
  "contractName": "MyNFT",
  "sourceName": "contracts/MyNFT.sol",
  "abi": [
    {
      "inputs": [],
      "stateMutability": "nonpayable",
      "type": "constructor"
    },
    {
      "anonymous": false,
      "inputs": [
        {
          "indexed": true,
          "internalType": "address",
          "name": "owner",
          "type": "address"
        },
        {
          "indexed": true,
          "internalType": "address",
          "name": "approved",
          "type": "address"
        },
        {
          "indexed": true,
          "internalType": "uint256",
          "name": "tokenId",
          "type": "uint256"
        }
      ],
      "name": "Approval",
      "type": "event"
    },
    {
      "anonymous": false,
      "inputs": [
        {
          "indexed": true,
          "internalType": "address",
          "name": "owner",
          "type": "address"
        },
        {
          "indexed": true,
          "internalType": "address",
          "name": "operator",
          "type": "address"
        },
        {
          "indexed": false,
          "internalType": "bool",
          "name": "approved",
          "type": "bool"
        }
      ],
      "name": "ApprovalForAll",
      "type": "event"
    },
    {
      "anonymous": false,
      "inputs": [
        {
          "indexed": true,
          "internalType": "address",
          "name": "previousOwner",
          "type": "address"
        },
        {
          "indexed": true,
          "internalType": "address",
          "name": "newOwner",
          "type": "address"
        }
      ],
      "name": "OwnershipTransferred",
      "type": "event"
    },
    {
      "anonymous": false,
      "inputs": [
        {
          "indexed": true,
          "internalType": "address",
          "name": "from",
          "type": "address"
        },
        {
          "indexed": true,
          "internalType": "address",
          "name": "to",
          "type": "address"
        },
        {
          "indexed": true,
          "internalType": "uint256",
          "name": "tokenId",
          "type": "uint256"
        }
      ],
      "name": "Transfer",
      "type": "event"
    },
    {
      "inputs": [
        {
          "internalType": "address",
          "name": "to",
          "type": "address"
        },
        {
          "internalType": "uint256",
          "name": "tokenId",
          "type": "uint256"
        }
      ],
      "name": "approve",
      "outputs": [],
      "stateMutability": "nonpayable",
      "type": "function"
    },
    {
      "inputs": [
        {
          "internalType": "address",
          "name": "owner",
          "type": "address"
        }
      ],
      "name": "balanceOf",
      "outputs": [
        {
          "internalType": "uint256",
          "name": "",
          "type": "uint256"
        }
      ],
      "stateMutability": "view",
      "type": "function"
    },
    {
      "inputs": [
        {
          "internalType": "uint256",
          "name": "tokenId",
          "type": "uint256"
        }
      ],
      "name": "getApproved",
      "outputs": [
        {
          "internalType": "address",
          "name": "",
          "type": "address"
        }
      ],
      "stateMutability": "view",
      "type": "function"
    },
    {
      "inputs": [
        {
          "internalType": "uint256",
          "name": "_index",
          "type": "uint256"
        }
      ],
      "name": "getIdentities",
      "outputs": [
        {
          "components": [
            {
              "internalType": "uint256",
              "name": "tokenId",
              "type": "uint256"
            },
            {
              "internalType": "address payable",
              "name": "owner",
              "type": "address"
            },
            {
              "internalType": "uint256",
              "name": "reputation",
              "type": "uint256"
            }
          ],
          "internalType": "struct MyNFT.NFT",
          "name": "",
          "type": "tuple"
        }
      ],
      "stateMutability": "view",
      "type": "function"
    },
    {
      "inputs": [],
      "name": "getNFTlength",
      "outputs": [
        {
          "internalType": "uint256",
          "name": "",
          "type": "uint256"
        }
      ],
      "stateMutability": "view",
      "type": "function"
    },
    {
      "inputs": [
        {
          "internalType": "uint256",
          "name": "_index",
          "type": "uint256"
        }
      ],
      "name": "increaseRep",
      "outputs": [],
      "stateMutability": "payable",
      "type": "function"
    },
    {
      "inputs": [
        {
          "internalType": "address",
          "name": "owner",
          "type": "address"
        },
        {
          "internalType": "address",
          "name": "operator",
          "type": "address"
        }
      ],
      "name": "isApprovedForAll",
      "outputs": [
        {
          "internalType": "bool",
          "name": "",
          "type": "bool"
        }
      ],
      "stateMutability": "view",
      "type": "function"
    },
    {
      "inputs": [
        {
          "internalType": "string",
          "name": "uri",
          "type": "string"
        }
      ],
      "name": "mint",
      "outputs": [],
      "stateMutability": "payable",
      "type": "function"
    },
    {
      "inputs": [
        {
          "internalType": "uint256",
          "name": "_newRepfee",
          "type": "uint256"
        }
      ],
      "name": "modifyRepFee",
      "outputs": [],
      "stateMutability": "nonpayable",
      "type": "function"
    },
    {
      "inputs": [],
      "name": "name",
      "outputs": [
        {
          "internalType": "string",
          "name": "",
          "type": "string"
        }
      ],
      "stateMutability": "view",
      "type": "function"
    },
    {
      "inputs": [
        {
          "internalType": "uint256",
          "name": "",
          "type": "uint256"
        }
      ],
      "name": "nfts",
      "outputs": [
        {
          "internalType": "uint256",
          "name": "tokenId",
          "type": "uint256"
        },
        {
          "internalType": "address payable",
          "name": "owner",
          "type": "address"
        },
        {
          "internalType": "uint256",
          "name": "reputation",
          "type": "uint256"
        }
      ],
      "stateMutability": "view",
      "type": "function"
    },
    {
      "inputs": [],
      "name": "owner",
      "outputs": [
        {
          "internalType": "address",
          "name": "",
          "type": "address"
        }
      ],
      "stateMutability": "view",
      "type": "function"
    },
    {
      "inputs": [
        {
          "internalType": "uint256",
          "name": "tokenId",
          "type": "uint256"
        }
      ],
      "name": "ownerOf",
      "outputs": [
        {
          "internalType": "address",
          "name": "",
          "type": "address"
        }
      ],
      "stateMutability": "view",
      "type": "function"
    },
    {
      "inputs": [],
      "name": "renounceOwnership",
      "outputs": [],
      "stateMutability": "nonpayable",
      "type": "function"
    },
    {
      "inputs": [
        {
          "internalType": "address",
          "name": "from",
          "type": "address"
        },
        {
          "internalType": "address",
          "name": "to",
          "type": "address"
        },
        {
          "internalType": "uint256",
          "name": "tokenId",
          "type": "uint256"
        }
      ],
      "name": "safeTransferFrom",
      "outputs": [],
      "stateMutability": "nonpayable",
      "type": "function"
    },
    {
      "inputs": [
        {
          "internalType": "address",
          "name": "from",
          "type": "address"
        },
        {
          "internalType": "address",
          "name": "to",
          "type": "address"
        },
        {
          "internalType": "uint256",
          "name": "tokenId",
          "type": "uint256"
        },
        {
          "internalType": "bytes",
          "name": "_data",
          "type": "bytes"
        }
      ],
      "name": "safeTransferFrom",
      "outputs": [],
      "stateMutability": "nonpayable",
      "type": "function"
    },
    {
      "inputs": [
        {
          "internalType": "address",
          "name": "operator",
          "type": "address"
        },
        {
          "internalType": "bool",
          "name": "approved",
          "type": "bool"
        }
      ],
      "name": "setApprovalForAll",
      "outputs": [],
      "stateMutability": "nonpayable",
      "type": "function"
    },
    {
      "inputs": [
        {
          "internalType": "bytes4",
          "name": "interfaceId",
          "type": "bytes4"
        }
      ],
      "name": "supportsInterface",
      "outputs": [
        {
          "internalType": "bool",
          "name": "",
          "type": "bool"
        }
      ],
      "stateMutability": "view",
      "type": "function"
    },
    {
      "inputs": [],
      "name": "symbol",
      "outputs": [
        {
          "internalType": "string",
          "name": "",
          "type": "string"
        }
      ],
      "stateMutability": "view",
      "type": "function"
    },
    {
      "inputs": [
        {
          "internalType": "uint256",
          "name": "index",
          "type": "uint256"
        }
      ],
      "name": "tokenByIndex",
      "outputs": [
        {
          "internalType": "uint256",
          "name": "",
          "type": "uint256"
        }
      ],
      "stateMutability": "view",
      "type": "function"
    },
    {
      "inputs": [
        {
          "internalType": "address",
          "name": "owner",
          "type": "address"
        },
        {
          "internalType": "uint256",
          "name": "index",
          "type": "uint256"
        }
      ],
      "name": "tokenOfOwnerByIndex",
      "outputs": [
        {
          "internalType": "uint256",
          "name": "",
          "type": "uint256"
        }
      ],
      "stateMutability": "view",
      "type": "function"
    },
    {
      "inputs": [
        {
          "internalType": "uint256",
          "name": "tokenId",
          "type": "uint256"
        }
      ],
      "name": "tokenURI",
      "outputs": [
        {
          "internalType": "string",
          "name": "",
          "type": "string"
        }
      ],
      "stateMutability": "view",
      "type": "function"
    },
    {
      "inputs": [],
      "name": "totalSupply",
      "outputs": [
        {
          "internalType": "uint256",
          "name": "",
          "type": "uint256"
        }
      ],
      "stateMutability": "view",
      "type": "function"
    },
    {
      "inputs": [
        {
          "internalType": "address",
          "name": "from",
          "type": "address"
        },
        {
          "internalType": "address",
          "name": "to",
          "type": "address"
        },
        {
          "internalType": "uint256",
          "name": "tokenId",
          "type": "uint256"
        }
      ],
      "name": "transferFrom",
      "outputs": [],
      "stateMutability": "nonpayable",
      "type": "function"
    },
    {
      "inputs": [
        {
          "internalType": "address",
          "name": "newOwner",
          "type": "address"
        }
      ],
      "name": "transferOwnership",
      "outputs": [],
      "stateMutability": "nonpayable",
      "type": "function"
    }
  ],
  "bytecode": "0x60806040526702c68af0bb140000600e553480156200001d57600080fd5b506040518060400160405280600c81526020017f43454c4f4944454e5449545900000000000000000000000000000000000000008152506040518060400160405280600481526020017f43494454000000000000000000000000000000000000000000000000000000008152508160009080519060200190620000a2929190620001b2565b508060019080519060200190620000bb929190620001b2565b505050620000de620000d2620000e460201b60201c565b620000ec60201b60201c565b620002c7565b600033905090565b6000600b60009054906101000a900473ffffffffffffffffffffffffffffffffffffffff16905081600b60006101000a81548173ffffffffffffffffffffffffffffffffffffffff021916908373ffffffffffffffffffffffffffffffffffffffff1602179055508173ffffffffffffffffffffffffffffffffffffffff168173ffffffffffffffffffffffffffffffffffffffff167f8be0079c531659141344cd1fd0a4f28419497f9722a3daafe3b4186f6b6457e060405160405180910390a35050565b828054620001c09062000262565b90600052602060002090601f016020900481019282620001e4576000855562000230565b82601f10620001ff57805160ff191683800117855562000230565b8280016001018555821562000230579182015b828111156200022f57825182559160200191906001019062000212565b5b5090506200023f919062000243565b5090565b5b808211156200025e57600081600090555060010162000244565b5090565b600060028204905060018216806200027b57607f821691505b6020821081141562000292576200029162000298565b5b50919050565b7f4e487b7100000000000000000000000000000000000000000000000000000000600052602260045260246000fd5b61430780620002d76000396000f3fe6080604052600436106101665760003560e01c8063715018a6116100d1578063b88d4fde1161008a578063d85d3d2711610064578063d85d3d2714610569578063e985e9c514610585578063f2da30db146105c2578063f2fde38b146105eb57610166565b8063b88d4fde146104d8578063c87b56dd14610501578063d41daa2b1461053e57610166565b8063715018a6146103e95780638877570f146104005780638da5cb5b1461041c57806395d89b4114610447578063a22cb46514610472578063aef5280b1461049b57610166565b8063265aa62111610123578063265aa6211461028d5780632f745c59146102cc57806342842e0e146103095780634f6ccce7146103325780636352211e1461036f57806370a08231146103ac57610166565b806301ffc9a71461016b57806306fdde03146101a8578063081812fc146101d3578063095ea7b31461021057806318160ddd1461023957806323b872dd14610264575b600080fd5b34801561017757600080fd5b50610192600480360381019061018d9190612dfd565b610614565b60405161019f919061342a565b60405180910390f35b3480156101b457600080fd5b506101bd610626565b6040516101ca9190613445565b60405180910390f35b3480156101df57600080fd5b506101fa60048036038101906101f59190612e94565b6106b8565b60405161020791906133c3565b60405180910390f35b34801561021c57600080fd5b5061023760048036038101906102329190612dc1565b61073d565b005b34801561024557600080fd5b5061024e610855565b60405161025b91906137a2565b60405180910390f35b34801561027057600080fd5b5061028b60048036038101906102869190612cbb565b610862565b005b34801561029957600080fd5b506102b460048036038101906102af9190612e94565b6108c2565b6040516102c3939291906137bd565b60405180910390f35b3480156102d857600080fd5b506102f360048036038101906102ee9190612dc1565b61090c565b60405161030091906137a2565b60405180910390f35b34801561031557600080fd5b50610330600480360381019061032b9190612cbb565b6109b1565b005b34801561033e57600080fd5b5061035960048036038101906103549190612e94565b6109d1565b60405161036691906137a2565b60405180910390f35b34801561037b57600080fd5b5061039660048036038101906103919190612e94565b610a68565b6040516103a391906133c3565b60405180910390f35b3480156103b857600080fd5b506103d360048036038101906103ce9190612c56565b610b1a565b6040516103e091906137a2565b60405180910390f35b3480156103f557600080fd5b506103fe610bd2565b005b61041a60048036038101906104159190612e94565b610c5a565b005b34801561042857600080fd5b50610431610f13565b60405161043e91906133c3565b60405180910390f35b34801561045357600080fd5b5061045c610f3d565b6040516104699190613445565b60405180910390f35b34801561047e57600080fd5b5061049960048036038101906104949190612d85565b610fcf565b005b3480156104a757600080fd5b506104c260048036038101906104bd9190612e94565b610fe5565b6040516104cf9190613787565b60405180910390f35b3480156104e457600080fd5b506104ff60048036038101906104fa9190612d0a565b61107c565b005b34801561050d57600080fd5b5061052860048036038101906105239190612e94565b6110de565b6040516105359190613445565b60405180910390f35b34801561054a57600080fd5b506105536110f0565b60405161056091906137a2565b60405180910390f35b610583600480360381019061057e9190612e4f565b611101565b005b34801561059157600080fd5b506105ac60048036038101906105a79190612c7f565b6111c5565b6040516105b9919061342a565b60405180910390f35b3480156105ce57600080fd5b506105e960048036038101906105e49190612e94565b611259565b005b3480156105f757600080fd5b50610612600480360381019061060d9190612c56565b6112df565b005b600061061f826113d7565b9050919050565b60606000805461063590613a1b565b80601f016020809104026020016040519081016040528092919081815260200182805461066190613a1b565b80156106ae5780601f10610683576101008083540402835291602001916106ae565b820191906000526020600020905b81548152906001019060200180831161069157829003601f168201915b5050505050905090565b60006106c382611451565b610702576040517f08c379a00000000000000000000000000000000000000000000000000000000081526004016106f9906136c7565b60405180910390fd5b6004600083815260200190815260200160002060009054906101000a900473ffffffffffffffffffffffffffffffffffffffff169050919050565b600061074882610a68565b90508073ffffffffffffffffffffffffffffffffffffffff168373ffffffffffffffffffffffffffffffffffffffff1614156107b9576040517f08c379a00000000000000000000000000000000000000000000000000000000081526004016107b090613727565b60405180910390fd5b8073ffffffffffffffffffffffffffffffffffffffff166107d86114bd565b73ffffffffffffffffffffffffffffffffffffffff1614806108075750610806816108016114bd565b6111c5565b5b610846576040517f08c379a000000000000000000000000000000000000000000000000000000000815260040161083d906135c7565b60405180910390fd5b61085083836114c5565b505050565b6000600880549050905090565b61087361086d6114bd565b8261157e565b6108b2576040517f08c379a00000000000000000000000000000000000000000000000000000000081526004016108a990613747565b60405180910390fd5b6108bd83838361165c565b505050565b600f6020528060005260406000206000915090508060000154908060010160009054906101000a900473ffffffffffffffffffffffffffffffffffffffff16908060020154905083565b600061091783610b1a565b8210610958576040517f08c379a000000000000000000000000000000000000000000000000000000000815260040161094f906134a7565b60405180910390fd5b600660008473ffffffffffffffffffffffffffffffffffffffff1673ffffffffffffffffffffffffffffffffffffffff168152602001908152602001600020600083815260200190815260200160002054905092915050565b6109cc8383836040518060200160405280600081525061107c565b505050565b60006109db610855565b8210610a1c576040517f08c379a0000000000000000000000000000000000000000000000000000000008152600401610a1390613767565b60405180910390fd5b60088281548110610a56577f4e487b7100000000000000000000000000000000000000000000000000000000600052603260045260246000fd5b90600052602060002001549050919050565b6000806002600084815260200190815260200160002060009054906101000a900473ffffffffffffffffffffffffffffffffffffffff169050600073ffffffffffffffffffffffffffffffffffffffff168173ffffffffffffffffffffffffffffffffffffffff161415610b11576040517f08c379a0000000000000000000000000000000000000000000000000000000008152600401610b0890613607565b60405180910390fd5b80915050919050565b60008073ffffffffffffffffffffffffffffffffffffffff168273ffffffffffffffffffffffffffffffffffffffff161415610b8b576040517f08c379a0000000000000000000000000000000000000000000000000000000008152600401610b82906135e7565b60405180910390fd5b600360008373ffffffffffffffffffffffffffffffffffffffff1673ffffffffffffffffffffffffffffffffffffffff168152602001908152602001600020549050919050565b610bda6114bd565b73ffffffffffffffffffffffffffffffffffffffff16610bf8610f13565b73ffffffffffffffffffffffffffffffffffffffff1614610c4e576040517f08c379a0000000000000000000000000000000000000000000000000000000008152600401610c45906136e7565b60405180910390fd5b610c5860006118c3565b565b600e543414610c9e576040517f08c379a0000000000000000000000000000000000000000000000000000000008152600401610c9590613487565b60405180910390fd5b600f600082815260200190815260200160002060010160009054906101000a900473ffffffffffffffffffffffffffffffffffffffff1673ffffffffffffffffffffffffffffffffffffffff163373ffffffffffffffffffffffffffffffffffffffff161415610d43576040517f08c379a0000000000000000000000000000000000000000000000000000000008152600401610d3a90613467565b60405180910390fd5b60001515601060003373ffffffffffffffffffffffffffffffffffffffff1673ffffffffffffffffffffffffffffffffffffffff16815260200190815260200160002060009054906101000a900460ff16151514610dd6576040517f08c379a0000000000000000000000000000000000000000000000000000000008152600401610dcd90613647565b60405180910390fd5b600f60008281526020019081526020016000206002016000815480929190610dfd90613a7e565b91905055506000610e0c610f13565b73ffffffffffffffffffffffffffffffffffffffff16600e54604051610e31906133ae565b60006040518083038185875af1925050503d8060008114610e6e576040519150601f19603f3d011682016040523d82523d6000602084013e610e73565b606091505b5050905080610eb7576040517f08c379a0000000000000000000000000000000000000000000000000000000008152600401610eae90613507565b60405180910390fd5b6001601060003373ffffffffffffffffffffffffffffffffffffffff1673ffffffffffffffffffffffffffffffffffffffff16815260200190815260200160002060006101000a81548160ff0219169083151502179055505050565b6000600b60009054906101000a900473ffffffffffffffffffffffffffffffffffffffff16905090565b606060018054610f4c90613a1b565b80601f0160208091040260200160405190810160405280929190818152602001828054610f7890613a1b565b8015610fc55780601f10610f9a57610100808354040283529160200191610fc5565b820191906000526020600020905b815481529060010190602001808311610fa857829003601f168201915b5050505050905090565b610fe1610fda6114bd565b8383611989565b5050565b610fed612a61565b600f6000838152602001908152602001600020604051806060016040529081600082015481526020016001820160009054906101000a900473ffffffffffffffffffffffffffffffffffffffff1673ffffffffffffffffffffffffffffffffffffffff1673ffffffffffffffffffffffffffffffffffffffff1681526020016002820154815250509050919050565b61108d6110876114bd565b8361157e565b6110cc576040517f08c379a00000000000000000000000000000000000000000000000000000000081526004016110c390613747565b60405180910390fd5b6110d884848484611af6565b50505050565b60606110e982611b52565b9050919050565b60006110fc600d611ca4565b905090565b60008282905011611147576040517f08c379a000000000000000000000000000000000000000000000000000000000815260040161113e90613667565b60405180910390fd5b611151600c611cb2565b600061115d600c611ca4565b90506111693382611cc8565b6111b78184848080601f016020809104026020016040519081016040528093929190818152602001838380828437600081840152601f19601f82011690508083019250505050505050611ce6565b6111c081611d5a565b505050565b6000600560008473ffffffffffffffffffffffffffffffffffffffff1673ffffffffffffffffffffffffffffffffffffffff16815260200190815260200160002060008373ffffffffffffffffffffffffffffffffffffffff1673ffffffffffffffffffffffffffffffffffffffff16815260200190815260200160002060009054906101000a900460ff16905092915050565b6112616114bd565b73ffffffffffffffffffffffffffffffffffffffff1661127f610f13565b73ffffffffffffffffffffffffffffffffffffffff16146112d5576040517f08c379a00000000000000000000000000000000000000000000000000000000081526004016112cc906136e7565b60405180910390fd5b80600e8190555050565b6112e76114bd565b73ffffffffffffffffffffffffffffffffffffffff16611305610f13565b73ffffffffffffffffffffffffffffffffffffffff161461135b576040517f08c379a0000000000000000000000000000000000000000000000000000000008152600401611352906136e7565b60405180910390fd5b600073ffffffffffffffffffffffffffffffffffffffff168173ffffffffffffffffffffffffffffffffffffffff1614156113cb576040517f08c379a00000000000000000000000000000000000000000000000000000000081526004016113c2906134e7565b60405180910390fd5b6113d4816118c3565b50565b60007f780e9d63000000000000000000000000000000000000000000000000000000007bffffffffffffffffffffffffffffffffffffffffffffffffffffffff1916827bffffffffffffffffffffffffffffffffffffffffffffffffffffffff1916148061144a575061144982611e15565b5b9050919050565b60008073ffffffffffffffffffffffffffffffffffffffff166002600084815260200190815260200160002060009054906101000a900473ffffffffffffffffffffffffffffffffffffffff1673ffffffffffffffffffffffffffffffffffffffff1614159050919050565b600033905090565b816004600083815260200190815260200160002060006101000a81548173ffffffffffffffffffffffffffffffffffffffff021916908373ffffffffffffffffffffffffffffffffffffffff160217905550808273ffffffffffffffffffffffffffffffffffffffff1661153883610a68565b73ffffffffffffffffffffffffffffffffffffffff167f8c5be1e5ebec7d5bd14f71427d1e84f3dd0314c0f7b2291e5b200ac8c7c3b92560405160405180910390a45050565b600061158982611451565b6115c8576040517f08c379a00000000000000000000000000000000000000000000000000000000081526004016115bf906135a7565b60405180910390fd5b60006115d383610a68565b90508073ffffffffffffffffffffffffffffffffffffffff168473ffffffffffffffffffffffffffffffffffffffff16148061164257508373ffffffffffffffffffffffffffffffffffffffff1661162a846106b8565b73ffffffffffffffffffffffffffffffffffffffff16145b80611653575061165281856111c5565b5b91505092915050565b8273ffffffffffffffffffffffffffffffffffffffff1661167c82610a68565b73ffffffffffffffffffffffffffffffffffffffff16146116d2576040517f08c379a00000000000000000000000000000000000000000000000000000000081526004016116c990613527565b60405180910390fd5b600073ffffffffffffffffffffffffffffffffffffffff168273ffffffffffffffffffffffffffffffffffffffff161415611742576040517f08c379a000000000000000000000000000000000000000000000000000000000815260040161173990613567565b60405180910390fd5b61174d838383611ef7565b6117586000826114c5565b6001600360008573ffffffffffffffffffffffffffffffffffffffff1673ffffffffffffffffffffffffffffffffffffffff16815260200190815260200160002060008282546117a8919061391f565b925050819055506001600360008473ffffffffffffffffffffffffffffffffffffffff1673ffffffffffffffffffffffffffffffffffffffff16815260200190815260200160002060008282546117ff9190613898565b92505081905550816002600083815260200190815260200160002060006101000a81548173ffffffffffffffffffffffffffffffffffffffff021916908373ffffffffffffffffffffffffffffffffffffffff160217905550808273ffffffffffffffffffffffffffffffffffffffff168473ffffffffffffffffffffffffffffffffffffffff167fddf252ad1be2c89b69c2b068fc378daa952ba7f163c4a11628f55a4df523b3ef60405160405180910390a46118be838383611f07565b505050565b6000600b60009054906101000a900473ffffffffffffffffffffffffffffffffffffffff16905081600b60006101000a81548173ffffffffffffffffffffffffffffffffffffffff021916908373ffffffffffffffffffffffffffffffffffffffff1602179055508173ffffffffffffffffffffffffffffffffffffffff168173ffffffffffffffffffffffffffffffffffffffff167f8be0079c531659141344cd1fd0a4f28419497f9722a3daafe3b4186f6b6457e060405160405180910390a35050565b8173ffffffffffffffffffffffffffffffffffffffff168373ffffffffffffffffffffffffffffffffffffffff1614156119f8576040517f08c379a00000000000000000000000000000000000000000000000000000000081526004016119ef90613587565b60405180910390fd5b80600560008573ffffffffffffffffffffffffffffffffffffffff1673ffffffffffffffffffffffffffffffffffffffff16815260200190815260200160002060008473ffffffffffffffffffffffffffffffffffffffff1673ffffffffffffffffffffffffffffffffffffffff16815260200190815260200160002060006101000a81548160ff0219169083151502179055508173ffffffffffffffffffffffffffffffffffffffff168373ffffffffffffffffffffffffffffffffffffffff167f17307eab39ab6107e8899845ad3d59bd9653f200f220920489ca2b5937696c3183604051611ae9919061342a565b60405180910390a3505050565b611b0184848461165c565b611b0d84848484611f0c565b611b4c576040517f08c379a0000000000000000000000000000000000000000000000000000000008152600401611b43906134c7565b60405180910390fd5b50505050565b6060611b5d82611451565b611b9c576040517f08c379a0000000000000000000000000000000000000000000000000000000008152600401611b93906136a7565b60405180910390fd5b6000600a60008481526020019081526020016000208054611bbc90613a1b565b80601f0160208091040260200160405190810160405280929190818152602001828054611be890613a1b565b8015611c355780601f10611c0a57610100808354040283529160200191611c35565b820191906000526020600020905b815481529060010190602001808311611c1857829003601f168201915b505050505090506000611c466120a3565b9050600081511415611c5c578192505050611c9f565b600082511115611c91578082604051602001611c7992919061338a565b60405160208183030381529060405292505050611c9f565b611c9a846120ba565b925050505b919050565b600081600001549050919050565b6001816000016000828254019250508190555050565b611ce2828260405180602001604052806000815250612161565b5050565b611cef82611451565b611d2e576040517f08c379a0000000000000000000000000000000000000000000000000000000008152600401611d2590613627565b60405180910390fd5b80600a60008481526020019081526020016000209080519060200190611d55929190612a98565b505050565b600060405180606001604052808381526020013373ffffffffffffffffffffffffffffffffffffffff16815260200182815250600f6000611d9b600d611ca4565b81526020019081526020016000206000820151816000015560208201518160010160006101000a81548173ffffffffffffffffffffffffffffffffffffffff021916908373ffffffffffffffffffffffffffffffffffffffff16021790555060408201518160020155905050611e11600d611cb2565b5050565b60007f80ac58cd000000000000000000000000000000000000000000000000000000007bffffffffffffffffffffffffffffffffffffffffffffffffffffffff1916827bffffffffffffffffffffffffffffffffffffffffffffffffffffffff19161480611ee057507f5b5e139f000000000000000000000000000000000000000000000000000000007bffffffffffffffffffffffffffffffffffffffffffffffffffffffff1916827bffffffffffffffffffffffffffffffffffffffffffffffffffffffff1916145b80611ef05750611eef826121bc565b5b9050919050565b611f02838383612226565b505050565b505050565b6000611f2d8473ffffffffffffffffffffffffffffffffffffffff1661233a565b15612096578373ffffffffffffffffffffffffffffffffffffffff1663150b7a02611f566114bd565b8786866040518563ffffffff1660e01b8152600401611f7894939291906133de565b602060405180830381600087803b158015611f9257600080fd5b505af1925050508015611fc357506040513d601f19601f82011682018060405250810190611fc09190612e26565b60015b612046573d8060008114611ff3576040519150601f19603f3d011682016040523d82523d6000602084013e611ff8565b606091505b5060008151141561203e576040517f08c379a0000000000000000000000000000000000000000000000000000000008152600401612035906134c7565b60405180910390fd5b805181602001fd5b63150b7a0260e01b7bffffffffffffffffffffffffffffffffffffffffffffffffffffffff1916817bffffffffffffffffffffffffffffffffffffffffffffffffffffffff19161491505061209b565b600190505b949350505050565b606060405180602001604052806000815250905090565b60606120c582611451565b612104576040517f08c379a00000000000000000000000000000000000000000000000000000000081526004016120fb90613707565b60405180910390fd5b600061210e6120a3565b9050600081511161212e5760405180602001604052806000815250612159565b806121388461235d565b60405160200161214992919061338a565b6040516020818303038152906040525b915050919050565b61216b838361250a565b6121786000848484611f0c565b6121b7576040517f08c379a00000000000000000000000000000000000000000000000000000000081526004016121ae906134c7565b60405180910390fd5b505050565b60007f01ffc9a7000000000000000000000000000000000000000000000000000000007bffffffffffffffffffffffffffffffffffffffffffffffffffffffff1916827bffffffffffffffffffffffffffffffffffffffffffffffffffffffff1916149050919050565b6122318383836126e4565b600073ffffffffffffffffffffffffffffffffffffffff168373ffffffffffffffffffffffffffffffffffffffff1614156122745761226f816126e9565b6122b3565b8173ffffffffffffffffffffffffffffffffffffffff168373ffffffffffffffffffffffffffffffffffffffff16146122b2576122b18382612732565b5b5b600073ffffffffffffffffffffffffffffffffffffffff168273ffffffffffffffffffffffffffffffffffffffff1614156122f6576122f18161289f565b612335565b8273ffffffffffffffffffffffffffffffffffffffff168273ffffffffffffffffffffffffffffffffffffffff16146123345761233382826129e2565b5b5b505050565b6000808273ffffffffffffffffffffffffffffffffffffffff163b119050919050565b606060008214156123a5576040518060400160405280600181526020017f30000000000000000000000000000000000000000000000000000000000000008152509050612505565b600082905060005b600082146123d75780806123c090613a7e565b915050600a826123d091906138ee565b91506123ad565b60008167ffffffffffffffff811115612419577f4e487b7100000000000000000000000000000000000000000000000000000000600052604160045260246000fd5b6040519080825280601f01601f19166020018201604052801561244b5781602001600182028036833780820191505090505b5090505b600085146124fe57600182612464919061391f565b9150600a856124739190613ac7565b603061247f9190613898565b60f81b8183815181106124bb577f4e487b7100000000000000000000000000000000000000000000000000000000600052603260045260246000fd5b60200101907effffffffffffffffffffffffffffffffffffffffffffffffffffffffffffff1916908160001a905350600a856124f791906138ee565b945061244f565b8093505050505b919050565b600073ffffffffffffffffffffffffffffffffffffffff168273ffffffffffffffffffffffffffffffffffffffff16141561257a576040517f08c379a000000000000000000000000000000000000000000000000000000000815260040161257190613687565b60405180910390fd5b61258381611451565b156125c3576040517f08c379a00000000000000000000000000000000000000000000000000000000081526004016125ba90613547565b60405180910390fd5b6125cf60008383611ef7565b6001600360008473ffffffffffffffffffffffffffffffffffffffff1673ffffffffffffffffffffffffffffffffffffffff168152602001908152602001600020600082825461261f9190613898565b92505081905550816002600083815260200190815260200160002060006101000a81548173ffffffffffffffffffffffffffffffffffffffff021916908373ffffffffffffffffffffffffffffffffffffffff160217905550808273ffffffffffffffffffffffffffffffffffffffff16600073ffffffffffffffffffffffffffffffffffffffff167fddf252ad1be2c89b69c2b068fc378daa952ba7f163c4a11628f55a4df523b3ef60405160405180910390a46126e060008383611f07565b5050565b505050565b6008805490506009600083815260200190815260200160002081905550600881908060018154018082558091505060019003906000526020600020016000909190919091505550565b6000600161273f84610b1a565b612749919061391f565b905060006007600084815260200190815260200160002054905081811461282e576000600660008673ffffffffffffffffffffffffffffffffffffffff1673ffffffffffffffffffffffffffffffffffffffff168152602001908152602001600020600084815260200190815260200160002054905080600660008773ffffffffffffffffffffffffffffffffffffffff1673ffffffffffffffffffffffffffffffffffffffff168152602001908152602001600020600084815260200190815260200160002081905550816007600083815260200190815260200160002081905550505b6007600084815260200190815260200160002060009055600660008573ffffffffffffffffffffffffffffffffffffffff1673ffffffffffffffffffffffffffffffffffffffff16815260200190815260200160002060008381526020019081526020016000206000905550505050565b600060016008805490506128b3919061391f565b9050600060096000848152602001908152602001600020549050600060088381548110612909577f4e487b7100000000000000000000000000000000000000000000000000000000600052603260045260246000fd5b906000526020600020015490508060088381548110612951577f4e487b7100000000000000000000000000000000000000000000000000000000600052603260045260246000fd5b9060005260206000200181905550816009600083815260200190815260200160002081905550600960008581526020019081526020016000206000905560088054806129c6577f4e487b7100000000000000000000000000000000000000000000000000000000600052603160045260246000fd5b6001900381819060005260206000200160009055905550505050565b60006129ed83610b1a565b905081600660008573ffffffffffffffffffffffffffffffffffffffff1673ffffffffffffffffffffffffffffffffffffffff168152602001908152602001600020600083815260200190815260200160002081905550806007600084815260200190815260200160002081905550505050565b604051806060016040528060008152602001600073ffffffffffffffffffffffffffffffffffffffff168152602001600081525090565b828054612aa490613a1b565b90600052602060002090601f016020900481019282612ac65760008555612b0d565b82601f10612adf57805160ff1916838001178555612b0d565b82800160010185558215612b0d579182015b82811115612b0c578251825591602001919060010190612af1565b5b509050612b1a9190612b1e565b5090565b5b80821115612b37576000816000905550600101612b1f565b5090565b6000612b4e612b4984613819565b6137f4565b905082815260208101848484011115612b6657600080fd5b612b718482856139d9565b509392505050565b600081359050612b8881614275565b92915050565b600081359050612b9d8161428c565b92915050565b600081359050612bb2816142a3565b92915050565b600081519050612bc7816142a3565b92915050565b600082601f830112612bde57600080fd5b8135612bee848260208601612b3b565b91505092915050565b60008083601f840112612c0957600080fd5b8235905067ffffffffffffffff811115612c2257600080fd5b602083019150836001820283011115612c3a57600080fd5b9250929050565b600081359050612c50816142ba565b92915050565b600060208284031215612c6857600080fd5b6000612c7684828501612b79565b91505092915050565b60008060408385031215612c9257600080fd5b6000612ca085828601612b79565b9250506020612cb185828601612b79565b9150509250929050565b600080600060608486031215612cd057600080fd5b6000612cde86828701612b79565b9350506020612cef86828701612b79565b9250506040612d0086828701612c41565b9150509250925092565b60008060008060808587031215612d2057600080fd5b6000612d2e87828801612b79565b9450506020612d3f87828801612b79565b9350506040612d5087828801612c41565b925050606085013567ffffffffffffffff811115612d6d57600080fd5b612d7987828801612bcd565b91505092959194509250565b60008060408385031215612d9857600080fd5b6000612da685828601612b79565b9250506020612db785828601612b8e565b9150509250929050565b60008060408385031215612dd457600080fd5b6000612de285828601612b79565b9250506020612df385828601612c41565b9150509250929050565b600060208284031215612e0f57600080fd5b6000612e1d84828501612ba3565b91505092915050565b600060208284031215612e3857600080fd5b6000612e4684828501612bb8565b91505092915050565b60008060208385031215612e6257600080fd5b600083013567ffffffffffffffff811115612e7c57600080fd5b612e8885828601612bf7565b92509250509250929050565b600060208284031215612ea657600080fd5b6000612eb484828501612c41565b91505092915050565b612ec681613965565b82525050565b612ed581613965565b82525050565b612ee481613953565b82525050565b612ef381613977565b82525050565b6000612f048261384a565b612f0e8185613860565b9350612f1e8185602086016139e8565b612f2781613bb4565b840191505092915050565b6000612f3d82613855565b612f47818561387c565b9350612f578185602086016139e8565b612f6081613bb4565b840191505092915050565b6000612f7682613855565b612f80818561388d565b9350612f908185602086016139e8565b80840191505092915050565b6000612fa9602f8361387c565b9150612fb482613bc5565b604082019050919050565b6000612fcc60268361387c565b9150612fd782613c14565b604082019050919050565b6000612fef602b8361387c565b9150612ffa82613c63565b604082019050919050565b600061301260328361387c565b915061301d82613cb2565b604082019050919050565b600061303560268361387c565b915061304082613d01565b604082019050919050565b6000613058600f8361387c565b915061306382613d50565b602082019050919050565b600061307b60258361387c565b915061308682613d79565b604082019050919050565b600061309e601c8361387c565b91506130a982613dc8565b602082019050919050565b60006130c160248361387c565b91506130cc82613df1565b604082019050919050565b60006130e460198361387c565b91506130ef82613e40565b602082019050919050565b6000613107602c8361387c565b915061311282613e69565b604082019050919050565b600061312a60388361387c565b915061313582613eb8565b604082019050919050565b600061314d602a8361387c565b915061315882613f07565b604082019050919050565b600061317060298361387c565b915061317b82613f56565b604082019050919050565b6000613193602e8361387c565b915061319e82613fa5565b604082019050919050565b60006131b660168361387c565b91506131c182613ff4565b602082019050919050565b60006131d960098361387c565b91506131e48261401d565b602082019050919050565b60006131fc60208361387c565b915061320782614046565b602082019050919050565b600061321f60318361387c565b915061322a8261406f565b604082019050919050565b6000613242602c8361387c565b915061324d826140be565b604082019050919050565b600061326560208361387c565b91506132708261410d565b602082019050919050565b6000613288602f8361387c565b915061329382614136565b604082019050919050565b60006132ab60218361387c565b91506132b682614185565b604082019050919050565b60006132ce600083613871565b91506132d9826141d4565b600082019050919050565b60006132f160318361387c565b91506132fc826141d7565b604082019050919050565b6000613314602c8361387c565b915061331f82614226565b604082019050919050565b606082016000820151613340600085018261336c565b5060208201516133536020850182612ebd565b506040820151613366604085018261336c565b50505050565b613375816139cf565b82525050565b613384816139cf565b82525050565b60006133968285612f6b565b91506133a28284612f6b565b91508190509392505050565b60006133b9826132c1565b9150819050919050565b60006020820190506133d86000830184612edb565b92915050565b60006080820190506133f36000830187612edb565b6134006020830186612edb565b61340d604083018561337b565b818103606083015261341f8184612ef9565b905095945050505050565b600060208201905061343f6000830184612eea565b92915050565b6000602082019050818103600083015261345f8184612f32565b905092915050565b6000602082019050818103600083015261348081612f9c565b9050919050565b600060208201905081810360008301526134a081612fbf565b9050919050565b600060208201905081810360008301526134c081612fe2565b9050919050565b600060208201905081810360008301526134e081613005565b9050919050565b6000602082019050818103600083015261350081613028565b9050919050565b600060208201905081810360008301526135208161304b565b9050919050565b600060208201905081810360008301526135408161306e565b9050919050565b6000602082019050818103600083015261356081613091565b9050919050565b60006020820190508181036000830152613580816130b4565b9050919050565b600060208201905081810360008301526135a0816130d7565b9050919050565b600060208201905081810360008301526135c0816130fa565b9050919050565b600060208201905081810360008301526135e08161311d565b9050919050565b6000602082019050818103600083015261360081613140565b9050919050565b6000602082019050818103600083015261362081613163565b9050919050565b6000602082019050818103600083015261364081613186565b9050919050565b60006020820190508181036000830152613660816131a9565b9050919050565b60006020820190508181036000830152613680816131cc565b9050919050565b600060208201905081810360008301526136a0816131ef565b9050919050565b600060208201905081810360008301526136c081613212565b9050919050565b600060208201905081810360008301526136e081613235565b9050919050565b6000602082019050818103600083015261370081613258565b9050919050565b600060208201905081810360008301526137208161327b565b9050919050565b600060208201905081810360008301526137408161329e565b9050919050565b60006020820190508181036000830152613760816132e4565b9050919050565b6000602082019050818103600083015261378081613307565b9050919050565b600060608201905061379c600083018461332a565b92915050565b60006020820190506137b7600083018461337b565b92915050565b60006060820190506137d2600083018661337b565b6137df6020830185612ecc565b6137ec604083018461337b565b949350505050565b60006137fe61380f565b905061380a8282613a4d565b919050565b6000604051905090565b600067ffffffffffffffff82111561383457613833613b85565b5b61383d82613bb4565b9050602081019050919050565b600081519050919050565b600081519050919050565b600082825260208201905092915050565b600081905092915050565b600082825260208201905092915050565b600081905092915050565b60006138a3826139cf565b91506138ae836139cf565b9250827fffffffffffffffffffffffffffffffffffffffffffffffffffffffffffffffff038211156138e3576138e2613af8565b5b828201905092915050565b60006138f9826139cf565b9150613904836139cf565b92508261391457613913613b27565b5b828204905092915050565b600061392a826139cf565b9150613935836139cf565b92508282101561394857613947613af8565b5b828203905092915050565b600061395e826139af565b9050919050565b6000613970826139af565b9050919050565b60008115159050919050565b60007fffffffff0000000000000000000000000000000000000000000000000000000082169050919050565b600073ffffffffffffffffffffffffffffffffffffffff82169050919050565b6000819050919050565b82818337600083830152505050565b60005b83811015613a065780820151818401526020810190506139eb565b83811115613a15576000848401525b50505050565b60006002820490506001821680613a3357607f821691505b60208210811415613a4757613a46613b56565b5b50919050565b613a5682613bb4565b810181811067ffffffffffffffff82111715613a7557613a74613b85565b5b80604052505050565b6000613a89826139cf565b91507fffffffffffffffffffffffffffffffffffffffffffffffffffffffffffffffff821415613abc57613abb613af8565b5b600182019050919050565b6000613ad2826139cf565b9150613add836139cf565b925082613aed57613aec613b27565b5b828206905092915050565b7f4e487b7100000000000000000000000000000000000000000000000000000000600052601160045260246000fd5b7f4e487b7100000000000000000000000000000000000000000000000000000000600052601260045260246000fd5b7f4e487b7100000000000000000000000000000000000000000000000000000000600052602260045260246000fd5b7f4e487b7100000000000000000000000000000000000000000000000000000000600052604160045260246000fd5b6000601f19601f8301169050919050565b7f796f752063616e277420696e6372656173652074686520726570206f6620796f60008201527f7572206f776e206964656e746974790000000000000000000000000000000000602082015250565b7f596f75206e65656420746f2070617920746f20696e637265617365207265707560008201527f746174696f6e0000000000000000000000000000000000000000000000000000602082015250565b7f455243373231456e756d657261626c653a206f776e657220696e646578206f7560008201527f74206f6620626f756e6473000000000000000000000000000000000000000000602082015250565b7f4552433732313a207472616e7366657220746f206e6f6e20455243373231526560008201527f63656976657220696d706c656d656e7465720000000000000000000000000000602082015250565b7f4f776e61626c653a206e6577206f776e657220697320746865207a65726f206160008201527f6464726573730000000000000000000000000000000000000000000000000000602082015250565b7f5472616e73666572206661696c65640000000000000000000000000000000000600082015250565b7f4552433732313a207472616e736665722066726f6d20696e636f72726563742060008201527f6f776e6572000000000000000000000000000000000000000000000000000000602082015250565b7f4552433732313a20746f6b656e20616c7265616479206d696e74656400000000600082015250565b7f4552433732313a207472616e7366657220746f20746865207a65726f2061646460008201527f7265737300000000000000000000000000000000000000000000000000000000602082015250565b7f4552433732313a20617070726f766520746f2063616c6c657200000000000000600082015250565b7f4552433732313a206f70657261746f7220717565727920666f72206e6f6e657860008201527f697374656e7420746f6b656e0000000000000000000000000000000000000000602082015250565b7f4552433732313a20617070726f76652063616c6c6572206973206e6f74206f7760008201527f6e6572206e6f7220617070726f76656420666f7220616c6c0000000000000000602082015250565b7f4552433732313a2062616c616e636520717565727920666f7220746865207a6560008201527f726f206164647265737300000000000000000000000000000000000000000000602082015250565b7f4552433732313a206f776e657220717565727920666f72206e6f6e657869737460008201527f656e7420746f6b656e0000000000000000000000000000000000000000000000602082015250565b7f45524337323155524953746f726167653a2055524920736574206f66206e6f6e60008201527f6578697374656e7420746f6b656e000000000000000000000000000000000000602082015250565b7f796f752063616e206f6e6c792072617465206f6e636500000000000000000000600082015250565b7f456d707479207572690000000000000000000000000000000000000000000000600082015250565b7f4552433732313a206d696e7420746f20746865207a65726f2061646472657373600082015250565b7f45524337323155524953746f726167653a2055524920717565727920666f722060008201527f6e6f6e6578697374656e7420746f6b656e000000000000000000000000000000602082015250565b7f4552433732313a20617070726f76656420717565727920666f72206e6f6e657860008201527f697374656e7420746f6b656e0000000000000000000000000000000000000000602082015250565b7f4f776e61626c653a2063616c6c6572206973206e6f7420746865206f776e6572600082015250565b7f4552433732314d657461646174613a2055524920717565727920666f72206e6f60008201527f6e6578697374656e7420746f6b656e0000000000000000000000000000000000602082015250565b7f4552433732313a20617070726f76616c20746f2063757272656e74206f776e6560008201527f7200000000000000000000000000000000000000000000000000000000000000602082015250565b50565b7f4552433732313a207472616e736665722063616c6c6572206973206e6f74206f60008201527f776e6572206e6f7220617070726f766564000000000000000000000000000000602082015250565b7f455243373231456e756d657261626c653a20676c6f62616c20696e646578206f60008201527f7574206f6620626f756e64730000000000000000000000000000000000000000602082015250565b61427e81613953565b811461428957600080fd5b50565b61429581613977565b81146142a057600080fd5b50565b6142ac81613983565b81146142b757600080fd5b50565b6142c3816139cf565b81146142ce57600080fd5b5056fea26469706673582212205cfa774d3ae5981ea2e2564eb51368d548b5414645f9195830048f30adc64f8564736f6c63430008040033",
  "linkReferences": {},
  "deployedLinkReferences": {}
}